{"contracts/SubscriptionManager.sol":{"SubscriptionManager":{"abi":[{"inputs":[],"stateMutability":"nonpayable","type":"constructor"},{"inputs":[],"name":"ReentrancyGuardReentrantCall","type":"error"},{"inputs":[{"internalType":"address","name":"token","type":"address"}],"name":"SafeERC20FailedOperation","type":"error"},{"anonymous":false,"inputs":[{"indexed":false,"internalType":"address","name":"bundler","type":"address"},{"indexed":false,"internalType":"bool","name":"status","type":"bool"}],"name":"BundlerSet","type":"event"},{"anonymous":false,"inputs":[{"indexed":true,"internalType":"address","name":"payer","type":"address"},{"indexed":false,"internalType":"uint256","name":"amount","type":"uint256"}],"name":"PaymasterDeposited","type":"event"},{"anonymous":false,"inputs":[{"indexed":true,"internalType":"address","name":"payer","type":"address"},{"indexed":false,"internalType":"uint256","name":"amount","type":"uint256"}],"name":"PaymasterWithdrawn","type":"event"},{"anonymous":false,"inputs":[{"indexed":true,"internalType":"uint256","name":"subId","type":"uint256"},{"indexed":true,"internalType":"uint256","name":"cycle","type":"uint256"},{"indexed":true,"internalType":"address","name":"executor","type":"address"},{"indexed":false,"internalType":"uint256","name":"amount","type":"uint256"},{"indexed":false,"internalType":"uint256","name":"timestamp","type":"uint256"}],"name":"PaymentExecuted","type":"event"},{"anonymous":false,"inputs":[{"indexed":true,"internalType":"uint256","name":"subId","type":"uint256"},{"indexed":true,"internalType":"uint256","name":"cycle","type":"uint256"},{"indexed":false,"internalType":"uint256","name":"amount","type":"uint256"}],"name":"PaymentRefunded","type":"event"},{"anonymous":false,"inputs":[{"indexed":true,"internalType":"uint256","name":"subId","type":"uint256"},{"indexed":false,"internalType":"address","name":"sessionKey","type":"address"}],"name":"SessionKeyUpdated","type":"event"},{"anonymous":false,"inputs":[{"indexed":true,"internalType":"uint256","name":"subId","type":"uint256"},{"indexed":false,"internalType":"address","name":"cancelledBy","type":"address"}],"name":"SubscriptionCancelled","type":"event"},{"anonymous":false,"inputs":[{"indexed":true,"internalType":"uint256","name":"subId","type":"uint256"},{"indexed":true,"internalType":"address","name":"payer","type":"address"},{"indexed":true,"internalType":"address","name":"recipient","type":"address"},{"indexed":false,"internalType":"address","name":"token","type":"address"},{"indexed":false,"internalType":"uint256","name":"amount","type":"uint256"},{"indexed":false,"internalType":"uint256","name":"interval","type":"uint256"},{"indexed":false,"internalType":"uint256","name":"totalCap","type":"uint256"}],"name":"SubscriptionCreated","type":"event"},{"inputs":[{"internalType":"uint256","name":"subId","type":"uint256"}],"name":"cancelSubscription","outputs":[],"stateMutability":"nonpayable","type":"function"},{"inputs":[{"internalType":"address","name":"recipient","type":"address"},{"internalType":"address","name":"token","type":"address"},{"internalType":"uint256","name":"amount","type":"uint256"},{"internalType":"uint256","name":"interval","type":"uint256"},{"internalType":"uint256","name":"totalCap","type":"uint256"},{"internalType":"address","name":"sessionKey","type":"address"}],"name":"createSubscription","outputs":[{"internalType":"uint256","name":"subId","type":"uint256"}],"stateMutability":"nonpayable","type":"function"},{"inputs":[{"internalType":"uint256","name":"","type":"uint256"}],"name":"cycleCount","outputs":[{"internalType":"uint256","name":"","type":"uint256"}],"stateMutability":"view","type":"function"},{"inputs":[{"internalType":"address","name":"payer","type":"address"},{"internalType":"uint256","name":"gasCost","type":"uint256"}],"name":"deductGas","outputs":[],"stateMutability":"nonpayable","type":"function"},{"inputs":[{"internalType":"uint256","name":"subId","type":"uint256"}],"name":"executePayment","outputs":[],"stateMutability":"nonpayable","type":"function"},{"inputs":[{"internalType":"uint256","name":"subId","type":"uint256"},{"internalType":"uint256","name":"cycle","type":"uint256"}],"name":"getPaymentRecord","outputs":[{"components":[{"internalType":"uint256","name":"subscriptionId","type":"uint256"},{"internalType":"uint256","name":"cycle","type":"uint256"},{"internalType":"uint256","name":"amount","type":"uint256"},{"internalType":"uint256","name":"timestamp","type":"uint256"},{"internalType":"bool","name":"refunded","type":"bool"}],"internalType":"struct SubscriptionManager.PaymentRecord","name":"","type":"tuple"}],"stateMutability":"view","type":"function"},{"inputs":[{"internalType":"uint256","name":"subId","type":"uint256"}],"name":"getSubscription","outputs":[{"components":[{"internalType":"address","name":"payer","type":"address"},{"internalType":"address","name":"recipient","type":"address"},{"internalType":"address","name":"token","type":"address"},{"internalType":"uint256","name":"amount","type":"uint256"},{"internalType":"uint256","name":"interval","type":"uint256"},{"internalType":"uint256","name":"nextPayment","type":"uint256"},{"internalType":"uint256","name":"totalCap","type":"uint256"},{"internalType":"uint256","name":"totalSpent","type":"uint256"},{"internalType":"address","name":"sessionKey","type":"address"},{"internalType":"bool","name":"active","type":"bool"}],"internalType":"struct SubscriptionManager.Subscription","name":"","type":"tuple"}],"stateMutability":"view","type":"function"},{"inputs":[{"internalType":"address","name":"","type":"address"}],"name":"isBundler","outputs":[{"internalType":"bool","name":"","type":"bool"}],"stateMutability":"view","type":"function"},{"inputs":[{"internalType":"uint256","name":"subId","type":"uint256"}],"name":"isDue","outputs":[{"internalType":"bool","name":"","type":"bool"}],"stateMutability":"view","type":"function"},{"inputs":[],"name":"nextSubId","outputs":[{"internalType":"uint256","name":"","type":"uint256"}],"stateMutability":"view","type":"function"},{"inputs":[],"name":"owner","outputs":[{"internalType":"address","name":"","type":"address"}],"stateMutability":"view","type":"function"},{"inputs":[{"internalType":"address","name":"","type":"address"}],"name":"paymasterDeposit","outputs":[{"internalType":"uint256","name":"","type":"uint256"}],"stateMutability":"view","type":"function"},{"inputs":[{"internalType":"address","name":"payer","type":"address"}],"name":"paymasterDeposit_","outputs":[],"stateMutability":"payable","type":"function"},{"inputs":[{"internalType":"uint256","name":"","type":"uint256"},{"internalType":"uint256","name":"","type":"uint256"}],"name":"paymentRecords","outputs":[{"internalType":"uint256","name":"subscriptionId","type":"uint256"},{"internalType":"uint256","name":"cycle","type":"uint256"},{"internalType":"uint256","name":"amount","type":"uint256"},{"internalType":"uint256","name":"timestamp","type":"uint256"},{"internalType":"bool","name":"refunded","type":"bool"}],"stateMutability":"view","type":"function"},{"inputs":[{"internalType":"uint256","name":"subId","type":"uint256"},{"internalType":"uint256","name":"cycle","type":"uint256"}],"name":"refundPayment","outputs":[],"stateMutability":"nonpayable","type":"function"},{"inputs":[{"internalType":"address","name":"bundler","type":"address"},{"internalType":"bool","name":"status","type":"bool"}],"name":"setBundler","outputs":[],"stateMutability":"nonpayable","type":"function"},{"inputs":[{"internalType":"uint256","name":"subId","type":"uint256"},{"internalType":"address","name":"key","type":"address"}],"name":"setSessionKey","outputs":[],"stateMutability":"nonpayable","type":"function"},{"inputs":[{"internalType":"uint256","name":"","type":"uint256"}],"name":"subscriptions","outputs":[{"internalType":"address","name":"payer","type":"address"},{"internalType":"address","name":"recipient","type":"address"},{"internalType":"address","name":"token","type":"address"},{"internalType":"uint256","name":"amount","type":"uint256"},{"internalType":"uint256","name":"interval","type":"uint256"},{"internalType":"uint256","name":"nextPayment","type":"uint256"},{"internalType":"uint256","name":"totalCap","type":"uint256"},{"internalType":"uint256","name":"totalSpent","type":"uint256"},{"internalType":"address","name":"sessionKey","type":"address"},{"internalType":"bool","name":"active","type":"bool"}],"stateMutability":"view","type":"function"},{"inputs":[{"internalType":"uint256","name":"amount","type":"uint256"}],"name":"withdrawPaymaster","outputs":[],"stateMutability":"nonpayable","type":"function"},{"stateMutability":"payable","type":"receive"}],"evm":{"bytecode":{"linkReferences":{},"object":"6080604052348015600f57600080fd5b5060017f9b779b17422d0df92223018b32b4d1fa46e071723d6817e2486d003becc55f0055600580546001600160a01b031916339081179091556000908152600460205260409020805460ff19166001179055611891806100716000396000f3fe6080604052600436106101185760003560e01c806371de0459116100a0578063b18e1d6011610064578063b18e1d601461042d578063c4a3ea0f1461045a578063dc311dd31461046d578063ec6b2fb914610582578063fd3738081461060157600080fd5b806371de045914610371578063783f223b1461039f5780638da5cb5b146103bf57806395144dc4146103f75780639c99f37a1461041757600080fd5b80632d5bbf60116100e75780632d5bbf60146101a65780632ed11be71461028d578063449a7e7d146102f1578063551530d6146103115780635583a9301461035157600080fd5b80630ecd471f146101245780630ff3d60c14610146578063162a0cf814610166578063212350831461018657600080fd5b3661011f57005b600080fd5b34801561013057600080fd5b5061014461013f3660046115be565b61062e565b005b34801561015257600080fd5b506101446101613660046115fa565b6106dc565b34801561017257600080fd5b50610144610181366004611626565b6107b9565b34801561019257600080fd5b506101446101a1366004611626565b610ac0565b3480156101b257600080fd5b506102286101c1366004611626565b60016020819052600091825260409091208054918101546002820154600383015460048401546005850154600686015460078701546008909701546001600160a01b039889169896871697958716969495939492939192811690600160a01b900460ff168a565b604080516001600160a01b039b8c168152998b1660208b0152978a16978901979097526060880195909552608087019390935260a086019190915260c085015260e0840152909216610100820152901515610120820152610140015b60405180910390f35b34801561029957600080fd5b506102ad6102a836600461163f565b610bac565b6040516102849190600060a0820190508251825260208301516020830152604083015160408301526060830151606083015260808301511515608083015292915050565b3480156102fd57600080fd5b5061014461030c366004611626565b610c3d565b34801561031d57600080fd5b5061034161032c366004611661565b60046020526000908152604090205460ff1681565b6040519015158152602001610284565b34801561035d57600080fd5b5061034161036c366004611626565b610d9a565b34801561037d57600080fd5b5061039161038c366004611683565b610df3565b604051908152602001610284565b3480156103ab57600080fd5b506101446103ba3660046116e2565b61111b565b3480156103cb57600080fd5b506005546103df906001600160a01b031681565b6040516001600160a01b039091168152602001610284565b34801561040357600080fd5b5061014461041236600461163f565b611203565b34801561042357600080fd5b5061039160005481565b34801561043957600080fd5b50610391610448366004611661565b60066020526000908152604090205481565b610144610468366004611661565b6113f9565b34801561047957600080fd5b50610575610488366004611626565b6040805161014081018252600080825260208201819052918101829052606081018290526080810182905260a0810182905260c0810182905260e0810182905261010081018290526101208101919091525060009081526001602081815260409283902083516101408101855281546001600160a01b0390811682529382015484169281019290925260028101548316938201939093526003830154606082015260048301546080820152600583015460a0820152600683015460c0820152600783015460e0820152600890920154908116610100830152600160a01b900460ff16151561012082015290565b604051610284919061170c565b34801561058e57600080fd5b506105d761059d36600461163f565b6002602081815260009384526040808520909152918352912080546001820154928201546003830154600490930154919392909160ff1685565b6040805195865260208601949094529284019190915260608301521515608082015260a001610284565b34801561060d57600080fd5b5061039161061c366004611626565b60036020526000908152604090205481565b6005546001600160a01b031633146106795760405162461bcd60e51b81526020600482015260096024820152682737ba1037bbb732b960b91b60448201526064015b60405180910390fd5b6001600160a01b038216600081815260046020908152604091829020805460ff19168515159081179091558251938452908301527f5d6cede305e41196d5adf3679d914166c52f2892e71781ef6fc51cb9df5b3407910160405180910390a15050565b8160005481106106fe5760405162461bcd60e51b8152600401610670906117bf565b6000838152600160205260409020546001600160a01b031633146107505760405162461bcd60e51b81526020600482015260096024820152682737ba103830bcb2b960b91b6044820152606401610670565b60008381526001602090815260409182902060080180546001600160a01b0319166001600160a01b038616908117909155915191825284917f8411a90e3e3862b98b3d993b4c12a39b041675c901901edcc0827fa827e3622b91015b60405180910390a2505050565b6107c16114a6565b8060005481106107e35760405162461bcd60e51b8152600401610670906117bf565b600082815260016020908152604080832033845260049092529091205460ff168061081a575060088101546001600160a01b031633145b6108665760405162461bcd60e51b815260206004820152601760248201527f4e6f7420617574686f72697a6564206578656375746f720000000000000000006044820152606401610670565b6008810154600160a01b900460ff166108b95760405162461bcd60e51b8152602060048201526015602482015274537562736372697074696f6e20696e61637469766560581b6044820152606401610670565b80600501544210156109035760405162461bcd60e51b815260206004820152601360248201527214185e5b595b9d081b9bdd08191d59481e595d606a1b6044820152606401610670565b6006810154156109695780600601548160030154826007015461092691906117fc565b11156109695760405162461bcd60e51b8152602060048201526012602482015271151bdd185b0818d85c08195e18d95959195960721b6044820152606401610670565b6000838152600360205260408120805482906109849061180f565b919050819055905081600301548260070160008282546109a491906117fc565b909155505060048201546109b890426117fc565b60058301556040805160a08101825285815260208082018481526003808701805485870190815242606087019081526000608088018181528d825260028089528a83208c845290985298902096518755935160018088019190915590518686015592519185019190915593516004909301805460ff191693151593909317909255845491850154925490850154610a60936001600160a01b03918216938216929116906114c2565b6003820154604080519182524260208301523391839187917f2727caf80b6da2dfa4408df2026c1fe59761d4b9184f422b225772bb9c3b7ee2910160405180910390a4505050610abd600160008051602061183c83398151915255565b50565b806000548110610ae25760405162461bcd60e51b8152600401610670906117bf565b600082815260016020526040902080546001600160a01b0316331480610b14575060088101546001600160a01b031633145b80610b2e57503360009081526004602052604090205460ff165b610b6b5760405162461bcd60e51b815260206004820152600e60248201526d139bdd08185d5d1a1bdc9a5e995960921b6044820152606401610670565b60088101805460ff60a01b1916905560405133815283907f533734a768f070673b823079652464b7e002bb51cdf15e3108209f397425225f906020016107ac565b610be06040518060a00160405280600081526020016000815260200160008152602001600081526020016000151581525090565b506000828152600260208181526040808420858552825292839020835160a081018552815481526001820154928101929092529182015492810192909252600381015460608301526004015460ff16151560808201525b92915050565b610c456114a6565b33600090815260066020526040902054811115610c9b5760405162461bcd60e51b8152602060048201526014602482015273496e73756666696369656e742062616c616e636560601b6044820152606401610670565b3360009081526006602052604081208054839290610cba908490611828565b9091555050604051600090339083908381818185875af1925050503d8060008114610d01576040519150601f19603f3d011682016040523d82523d6000602084013e610d06565b606091505b5050905080610d4d5760405162461bcd60e51b8152602060048201526013602482015272115512081d1c985b9cd9995c8819985a5b1959606a1b6044820152606401610670565b60405182815233907f4bce4a4ca68d82b29c04a390ac4303f7079cf9028d69784bf345e07ae54dc7899060200160405180910390a250610abd600160008051602061183c83398151915255565b6000816000548110610dbe5760405162461bcd60e51b8152600401610670906117bf565b60008381526001602052604090206008810154600160a01b900460ff168015610deb575080600501544210155b949350505050565b60006001600160a01b038716610e3c5760405162461bcd60e51b815260206004820152600e60248201526d16995c9bc81c9958da5c1a595b9d60921b6044820152606401610670565b6001600160a01b038616610e7f5760405162461bcd60e51b815260206004820152600a6024820152692d32b937903a37b5b2b760b11b6044820152606401610670565b60008511610ebd5760405162461bcd60e51b815260206004820152600b60248201526a16995c9bc8185b5bdd5b9d60aa1b6044820152606401610670565b60008411610efd5760405162461bcd60e51b815260206004820152600d60248201526c16995c9bc81a5b9d195c9d985b609a1b6044820152606401610670565b600080549080610f0c8361180f565b919050559050604051806101400160405280336001600160a01b03168152602001886001600160a01b03168152602001876001600160a01b0316815260200186815260200185815260200142815260200184815260200160008152602001836001600160a01b03168152602001600115158152506001600083815260200190815260200160002060008201518160000160006101000a8154816001600160a01b0302191690836001600160a01b0316021790555060208201518160010160006101000a8154816001600160a01b0302191690836001600160a01b0316021790555060408201518160020160006101000a8154816001600160a01b0302191690836001600160a01b03160217905550606082015181600301556080820151816004015560a0820151816005015560c0820151816006015560e082015181600701556101008201518160080160006101000a8154816001600160a01b0302191690836001600160a01b031602179055506101208201518160080160146101000a81548160ff021916908315150217905550905050866001600160a01b0316336001600160a01b0316827f3a1d21bece43c85b5a9afdb7ec13187791f0d64dec190a38b6fb0ea242cf49bf8989898960405161110994939291906001600160a01b0394909416845260208401929092526040830152606082015260800190565b60405180910390a49695505050505050565b3360009081526004602052604090205460ff1661116a5760405162461bcd60e51b815260206004820152600d60248201526c2737ba103090313ab7323632b960991b6044820152606401610670565b6001600160a01b0382166000908152600660205260409020548111156111d25760405162461bcd60e51b815260206004820152601e60248201527f496e73756666696369656e74207061796d61737465722062616c616e636500006044820152606401610670565b6001600160a01b038216600090815260066020526040812080548392906111fa908490611828565b90915550505050565b61120b6114a6565b81600054811061122d5760405162461bcd60e51b8152600401610670906117bf565b6000838152600160208190526040909120908101546001600160a01b0316331461128d5760405162461bcd60e51b8152602060048201526011602482015270139bdd081d1a19481c9958da5c1a595b9d607a1b6044820152606401610670565b6000848152600260208181526040808420878552909152909120908101546112eb5760405162461bcd60e51b8152602060048201526011602482015270139bc81c185e5b595b9d081c9958dbdc99607a1b6044820152606401610670565b600481015460ff16156113335760405162461bcd60e51b815260206004820152601060248201526f105b1c9958591e481c99599d5b99195960821b6044820152606401610670565b60048101805460ff19166001179055600281015460078301541061136f5780600201548260070160008282546113699190611828565b90915550505b600182015482546002808401549085015461139c936001600160a01b0391821693908216929116906114c2565b83857f0d873fe5f6868437feb15563953001c95c36d7fe14c7c6c13392c0143dc4ad7383600201546040516113d391815260200190565b60405180910390a35050506113f5600160008051602061183c83398151915255565b5050565b600034116114385760405162461bcd60e51b815260206004820152600c60248201526b16995c9bc819195c1bdcda5d60a21b6044820152606401610670565b6001600160a01b038116600090815260066020526040812080543492906114609084906117fc565b90915550506040513481526001600160a01b038216907fbc7ca18aabaed00211fcdeab040a07bab11e595ae73f83568cf0dda3d4010ea09060200160405180910390a250565b6114ae6114fe565b600260008051602061183c83398151915255565b6114d0848484846001611530565b6114f857604051635274afe760e01b81526001600160a01b0385166004820152602401610670565b50505050565b60008051602061183c8339815191525460020361152e57604051633ee5aeb560e01b815260040160405180910390fd5b565b6040516323b872dd60e01b60008181526001600160a01b038781166004528616602452604485905291602083606481808c5af192506001600051148316611590578383151615611583573d6000823e3d81fd5b6000883b113d1516831692505b60405250600060605295945050505050565b80356001600160a01b03811681146115b957600080fd5b919050565b600080604083850312156115d157600080fd5b6115da836115a2565b9150602083013580151581146115ef57600080fd5b809150509250929050565b6000806040838503121561160d57600080fd5b8235915061161d602084016115a2565b90509250929050565b60006020828403121561163857600080fd5b5035919050565b6000806040838503121561165257600080fd5b50508035926020909101359150565b60006020828403121561167357600080fd5b61167c826115a2565b9392505050565b60008060008060008060c0878903121561169c57600080fd5b6116a5876115a2565b95506116b3602088016115a2565b94506040870135935060608701359250608087013591506116d660a088016115a2565b90509295509295509295565b600080604083850312156116f557600080fd5b6116fe836115a2565b946020939093013593505050565b81516001600160a01b031681526101408101602083015161173860208401826001600160a01b03169052565b50604083015161175360408401826001600160a01b03169052565b50606083015160608301526080830151608083015260a083015160a083015260c083015160c083015260e083015160e08301526101008301516117a26101008401826001600160a01b03169052565b506101208301516117b861012084018215159052565b5092915050565b6020808252600d908201526c14dd58881b9bdd08199bdd5b99609a1b604082015260600190565b634e487b7160e01b600052601160045260246000fd5b80820180821115610c3757610c376117e6565b600060018201611821576118216117e6565b5060010190565b81810381811115610c3757610c376117e656fe9b779b17422d0df92223018b32b4d1fa46e071723d6817e2486d003becc55f00a26469706673582212204012b1ba80870d12c446c05134404f71e08db3770a97631cdfdb67acf376040b64736f6c634300081a0033","opcodes":"PUSH1 0x80 PUSH1 0x40 MSTORE CALLVALUE DUP1 ISZERO PUSH1 0xF JUMPI PUSH1 0x0 DUP1 REVERT JUMPDEST POP PUSH1 0x1 PUSH32 0x9B779B17422D0DF92223018B32B4D1FA46E071723D6817E2486D003BECC55F00 SSTORE PUSH1 0x5 DUP1 SLOAD PUSH1 0x1 PUSH1 0x1 PUSH1 0xA0 SHL SUB NOT AND CALLER SWAP1 DUP2 OR SWAP1 SWAP2 SSTORE PUSH1 0x0 SWAP1 DUP2 MSTORE PUSH1 0x4 PUSH1 0x20 MSTORE PUSH1 0x40 SWAP1 KECCAK256 DUP1 SLOAD PUSH1 0xFF NOT AND PUSH1 0x1 OR SWAP1 SSTORE PUSH2 0x1891 DUP1 PUSH2 0x71 PUSH1 0x0 CODECOPY PUSH1 0x0 RETURN INVALID PUSH1 0x80 PUSH1 0x40 MSTORE PUSH1 0x4 CALLDATASIZE LT PUSH2 0x118 JUMPI PUSH1 0x0 CALLDATALOAD PUSH1 0xE0 SHR DUP1 PUSH4 0x71DE0459 GT PUSH2 0xA0 JUMPI DUP1 PUSH4 0xB18E1D60 GT PUSH2 0x64 JUMPI DUP1 PUSH4 0xB18E1D60 EQ PUSH2 0x42D JUMPI DUP1 PUSH4 0xC4A3EA0F EQ PUSH2 0x45A JUMPI DUP1 PUSH4 0xDC311DD3 EQ PUSH2 0x46D JUMPI DUP1 PUSH4 0xEC6B2FB9 EQ PUSH2 0x582 JUMPI DUP1 PUSH4 0xFD373808 EQ PUSH2 0x601 JUMPI PUSH1 0x0 DUP1 REVERT JUMPDEST DUP1 PUSH4 0x71DE0459 EQ PUSH2 0x371 JUMPI DUP1 PUSH4 0x783F223B EQ PUSH2 0x39F JUMPI DUP1 PUSH4 0x8DA5CB5B EQ PUSH2 0x3BF JUMPI DUP1 PUSH4 0x95144DC4 EQ PUSH2 0x3F7 JUMPI DUP1 PUSH4 0x9C99F37A EQ PUSH2 0x417 JUMPI PUSH1 0x0 DUP1 REVERT JUMPDEST DUP1 PUSH4 0x2D5BBF60 GT PUSH2 0xE7 JUMPI DUP1 PUSH4 0x2D5BBF60 EQ PUSH2 0x1A6 JUMPI DUP1 PUSH4 0x2ED11BE7 EQ PUSH2 0x28D JUMPI DUP1 PUSH4 0x449A7E7D EQ PUSH2 0x2F1 JUMPI DUP1 PUSH4 0x551530D6 EQ PUSH2 0x311 JUMPI DUP1 PUSH4 0x5583A930 EQ PUSH2 0x351 JUMPI PUSH1 0x0 DUP1 REVERT JUMPDEST DUP1 PUSH4 0xECD471F EQ PUSH2 0x124 JUMPI DUP1 PUSH4 0xFF3D60C EQ PUSH2 0x146 JUMPI DUP1 PUSH4 0x162A0CF8 EQ PUSH2 0x166 JUMPI DUP1 PUSH4 0x21235083 EQ PUSH2 0x186 JUMPI PUSH1 0x0 DUP1 REVERT JUMPDEST CALLDATASIZE PUSH2 0x11F JUMPI STOP JUMPDEST PUSH1 0x0 DUP1 REVERT JUMPDEST CALLVALUE DUP1 ISZERO PUSH2 0x130 JUMPI PUSH1 0x0 DUP1 REVERT JUMPDEST POP PUSH2 0x144 PUSH2 0x13F CALLDATASIZE PUSH1 0x4 PUSH2 0x15BE JUMP JUMPDEST PUSH2 0x62E JUMP JUMPDEST STOP JUMPDEST CALLVALUE DUP1 ISZERO PUSH2 0x152 JUMPI PUSH1 0x0 DUP1 REVERT JUMPDEST POP PUSH2 0x144 PUSH2 0x161 CALLDATASIZE PUSH1 0x4 PUSH2 0x15FA JUMP JUMPDEST PUSH2 0x6DC JUMP JUMPDEST CALLVALUE DUP1 ISZERO PUSH2 0x172 JUMPI PUSH1 0x0 DUP1 REVERT JUMPDEST POP PUSH2 0x144 PUSH2 0x181 CALLDATASIZE PUSH1 0x4 PUSH2 0x1626 JUMP JUMPDEST PUSH2 0x7B9 JUMP JUMPDEST CALLVALUE DUP1 ISZERO PUSH2 0x192 JUMPI PUSH1 0x0 DUP1 REVERT JUMPDEST POP PUSH2 0x144 PUSH2 0x1A1 CALLDATASIZE PUSH1 0x4 PUSH2 0x1626 JUMP JUMPDEST PUSH2 0xAC0 JUMP JUMPDEST CALLVALUE DUP1 ISZERO PUSH2 0x1B2 JUMPI PUSH1 0x0 DUP1 REVERT JUMPDEST POP PUSH2 0x228 PUSH2 0x1C1 CALLDATASIZE PUSH1 0x4 PUSH2 0x1626 JUMP JUMPDEST PUSH1 0x1 PUSH1 0x20 DUP2 SWAP1 MSTORE PUSH1 0x0 SWAP2 DUP3 MSTORE PUSH1 0x40 SWAP1 SWAP2 KECCAK256 DUP1 SLOAD SWAP2 DUP2 ADD SLOAD PUSH1 0x2 DUP3 ADD SLOAD PUSH1 0x3 DUP4 ADD SLOAD PUSH1 0x4 DUP5 ADD SLOAD PUSH1 0x5 DUP6 ADD SLOAD PUSH1 0x6 DUP7 ADD SLOAD PUSH1 0x7 DUP8 ADD SLOAD PUSH1 0x8 SWAP1 SWAP8 ADD SLOAD PUSH1 0x1 PUSH1 0x1 PUSH1 0xA0 SHL SUB SWAP9 DUP10 AND SWAP9 SWAP7 DUP8 AND SWAP8 SWAP6 DUP8 AND SWAP7 SWAP5 SWAP6 SWAP4 SWAP5 SWAP3 SWAP4 SWAP2 SWAP3 DUP2 AND SWAP1 PUSH1 0x1 PUSH1 0xA0 SHL SWAP1 DIV PUSH1 0xFF AND DUP11 JUMP JUMPDEST PUSH1 0x40 DUP1 MLOAD PUSH1 0x1 PUSH1 0x1 PUSH1 0xA0 SHL SUB SWAP12 DUP13 AND DUP2 MSTORE SWAP10 DUP12 AND PUSH1 0x20 DUP12 ADD MSTORE SWAP8 DUP11 AND SWAP8 DUP10 ADD SWAP8 SWAP1 SWAP8 MSTORE PUSH1 0x60 DUP9 ADD SWAP6 SWAP1 SWAP6 MSTORE PUSH1 0x80 DUP8 ADD SWAP4 SWAP1 SWAP4 MSTORE PUSH1 0xA0 DUP7 ADD SWAP2 SWAP1 SWAP2 MSTORE PUSH1 0xC0 DUP6 ADD MSTORE PUSH1 0xE0 DUP5 ADD MSTORE SWAP1 SWAP3 AND PUSH2 0x100 DUP3 ADD MSTORE SWAP1 ISZERO ISZERO PUSH2 0x120 DUP3 ADD MSTORE PUSH2 0x140 ADD JUMPDEST PUSH1 0x40 MLOAD DUP1 SWAP2 SUB SWAP1 RETURN JUMPDEST CALLVALUE DUP1 ISZERO PUSH2 0x299 JUMPI PUSH1 0x0 DUP1 REVERT JUMPDEST POP PUSH2 0x2AD PUSH2 0x2A8 CALLDATASIZE PUSH1 0x4 PUSH2 0x163F JUMP JUMPDEST PUSH2 0xBAC JUMP JUMPDEST PUSH1 0x40 MLOAD PUSH2 0x284 SWAP2 SWAP1 PUSH1 0x0 PUSH1 0xA0 DUP3 ADD SWAP1 POP DUP3 MLOAD DUP3 MSTORE PUSH1 0x20 DUP4 ADD MLOAD PUSH1 0x20 DUP4 ADD MSTORE PUSH1 0x40 DUP4 ADD MLOAD PUSH1 0x40 DUP4 ADD MSTORE PUSH1 0x60 DUP4 ADD MLOAD PUSH1 0x60 DUP4 ADD MSTORE PUSH1 0x80 DUP4 ADD MLOAD ISZERO ISZERO PUSH1 0x80 DUP4 ADD MSTORE SWAP3 SWAP2 POP POP JUMP JUMPDEST CALLVALUE DUP1 ISZERO PUSH2 0x2FD JUMPI PUSH1 0x0 DUP1 REVERT JUMPDEST POP PUSH2 0x144 PUSH2 0x30C CALLDATASIZE PUSH1 0x4 PUSH2 0x1626 JUMP JUMPDEST PUSH2 0xC3D JUMP JUMPDEST CALLVALUE DUP1 ISZERO PUSH2 0x31D JUMPI PUSH1 0x0 DUP1 REVERT JUMPDEST POP PUSH2 0x341 PUSH2 0x32C CALLDATASIZE PUSH1 0x4 PUSH2 0x1661 JUMP JUMPDEST PUSH1 0x4 PUSH1 0x20 MSTORE PUSH1 0x0 SWAP1 DUP2 MSTORE PUSH1 0x40 SWAP1 KECCAK256 SLOAD PUSH1 0xFF AND DUP2 JUMP JUMPDEST PUSH1 0x40 MLOAD SWAP1 ISZERO ISZERO DUP2 MSTORE PUSH1 0x20 ADD PUSH2 0x284 JUMP JUMPDEST CALLVALUE DUP1 ISZERO PUSH2 0x35D JUMPI PUSH1 0x0 DUP1 REVERT JUMPDEST POP PUSH2 0x341 PUSH2 0x36C CALLDATASIZE PUSH1 0x4 PUSH2 0x1626 JUMP JUMPDEST PUSH2 0xD9A JUMP JUMPDEST CALLVALUE DUP1 ISZERO PUSH2 0x37D JUMPI PUSH1 0x0 DUP1 REVERT JUMPDEST POP PUSH2 0x391 PUSH2 0x38C CALLDATASIZE PUSH1 0x4 PUSH2 0x1683 JUMP JUMPDEST PUSH2 0xDF3 JUMP JUMPDEST PUSH1 0x40 MLOAD SWAP1 DUP2 MSTORE PUSH1 0x20 ADD PUSH2 0x284 JUMP JUMPDEST CALLVALUE DUP1 ISZERO PUSH2 0x3AB JUMPI PUSH1 0x0 DUP1 REVERT JUMPDEST POP PUSH2 0x144 PUSH2 0x3BA CALLDATASIZE PUSH1 0x4 PUSH2 0x16E2 JUMP JUMPDEST PUSH2 0x111B JUMP JUMPDEST CALLVALUE DUP1 ISZERO PUSH2 0x3CB JUMPI PUSH1 0x0 DUP1 REVERT JUMPDEST POP PUSH1 0x5 SLOAD PUSH2 0x3DF SWAP1 PUSH1 0x1 PUSH1 0x1 PUSH1 0xA0 SHL SUB AND DUP2 JUMP JUMPDEST PUSH1 0x40 MLOAD PUSH1 0x1 PUSH1 0x1 PUSH1 0xA0 SHL SUB SWAP1 SWAP2 AND DUP2 MSTORE PUSH1 0x20 ADD PUSH2 0x284 JUMP JUMPDEST CALLVALUE DUP1 ISZERO PUSH2 0x403 JUMPI PUSH1 0x0 DUP1 REVERT JUMPDEST POP PUSH2 0x144 PUSH2 0x412 CALLDATASIZE PUSH1 0x4 PUSH2 0x163F JUMP JUMPDEST PUSH2 0x1203 JUMP JUMPDEST CALLVALUE DUP1 ISZERO PUSH2 0x423 JUMPI PUSH1 0x0 DUP1 REVERT JUMPDEST POP PUSH2 0x391 PUSH1 0x0 SLOAD DUP2 JUMP JUMPDEST CALLVALUE DUP1 ISZERO PUSH2 0x439 JUMPI PUSH1 0x0 DUP1 REVERT JUMPDEST POP PUSH2 0x391 PUSH2 0x448 CALLDATASIZE PUSH1 0x4 PUSH2 0x1661 JUMP JUMPDEST PUSH1 0x6 PUSH1 0x20 MSTORE PUSH1 0x0 SWAP1 DUP2 MSTORE PUSH1 0x40 SWAP1 KECCAK256 SLOAD DUP2 JUMP JUMPDEST PUSH2 0x144 PUSH2 0x468 CALLDATASIZE PUSH1 0x4 PUSH2 0x1661 JUMP JUMPDEST PUSH2 0x13F9 JUMP JUMPDEST CALLVALUE DUP1 ISZERO PUSH2 0x479 JUMPI PUSH1 0x0 DUP1 REVERT JUMPDEST POP PUSH2 0x575 PUSH2 0x488 CALLDATASIZE PUSH1 0x4 PUSH2 0x1626 JUMP JUMPDEST PUSH1 0x40 DUP1 MLOAD PUSH2 0x140 DUP2 ADD DUP3 MSTORE PUSH1 0x0 DUP1 DUP3 MSTORE PUSH1 0x20 DUP3 ADD DUP2 SWAP1 MSTORE SWAP2 DUP2 ADD DUP3 SWAP1 MSTORE PUSH1 0x60 DUP2 ADD DUP3 SWAP1 MSTORE PUSH1 0x80 DUP2 ADD DUP3 SWAP1 MSTORE PUSH1 0xA0 DUP2 ADD DUP3 SWAP1 MSTORE PUSH1 0xC0 DUP2 ADD DUP3 SWAP1 MSTORE PUSH1 0xE0 DUP2 ADD DUP3 SWAP1 MSTORE PUSH2 0x100 DUP2 ADD DUP3 SWAP1 MSTORE PUSH2 0x120 DUP2 ADD SWAP2 SWAP1 SWAP2 MSTORE POP PUSH1 0x0 SWAP1 DUP2 MSTORE PUSH1 0x1 PUSH1 0x20 DUP2 DUP2 MSTORE PUSH1 0x40 SWAP3 DUP4 SWAP1 KECCAK256 DUP4 MLOAD PUSH2 0x140 DUP2 ADD DUP6 MSTORE DUP2 SLOAD PUSH1 0x1 PUSH1 0x1 PUSH1 0xA0 SHL SUB SWAP1 DUP2 AND DUP3 MSTORE SWAP4 DUP3 ADD SLOAD DUP5 AND SWAP3 DUP2 ADD SWAP3 SWAP1 SWAP3 MSTORE PUSH1 0x2 DUP2 ADD SLOAD DUP4 AND SWAP4 DUP3 ADD SWAP4 SWAP1 SWAP4 MSTORE PUSH1 0x3 DUP4 ADD SLOAD PUSH1 0x60 DUP3 ADD MSTORE PUSH1 0x4 DUP4 ADD SLOAD PUSH1 0x80 DUP3 ADD MSTORE PUSH1 0x5 DUP4 ADD SLOAD PUSH1 0xA0 DUP3 ADD MSTORE PUSH1 0x6 DUP4 ADD SLOAD PUSH1 0xC0 DUP3 ADD MSTORE PUSH1 0x7 DUP4 ADD SLOAD PUSH1 0xE0 DUP3 ADD MSTORE PUSH1 0x8 SWAP1 SWAP3 ADD SLOAD SWAP1 DUP2 AND PUSH2 0x100 DUP4 ADD MSTORE PUSH1 0x1 PUSH1 0xA0 SHL SWAP1 DIV PUSH1 0xFF AND ISZERO ISZERO PUSH2 0x120 DUP3 ADD MSTORE SWAP1 JUMP JUMPDEST PUSH1 0x40 MLOAD PUSH2 0x284 SWAP2 SWAP1 PUSH2 0x170C JUMP JUMPDEST CALLVALUE DUP1 ISZERO PUSH2 0x58E JUMPI PUSH1 0x0 DUP1 REVERT JUMPDEST POP PUSH2 0x5D7 PUSH2 0x59D CALLDATASIZE PUSH1 0x4 PUSH2 0x163F JUMP JUMPDEST PUSH1 0x2 PUSH1 0x20 DUP2 DUP2 MSTORE PUSH1 0x0 SWAP4 DUP5 MSTORE PUSH1 0x40 DUP1 DUP6 KECCAK256 SWAP1 SWAP2 MSTORE SWAP2 DUP4 MSTORE SWAP2 KECCAK256 DUP1 SLOAD PUSH1 0x1 DUP3 ADD SLOAD SWAP3 DUP3 ADD SLOAD PUSH1 0x3 DUP4 ADD SLOAD PUSH1 0x4 SWAP1 SWAP4 ADD SLOAD SWAP2 SWAP4 SWAP3 SWAP1 SWAP2 PUSH1 0xFF AND DUP6 JUMP JUMPDEST PUSH1 0x40 DUP1 MLOAD SWAP6 DUP7 MSTORE PUSH1 0x20 DUP7 ADD SWAP5 SWAP1 SWAP5 MSTORE SWAP3 DUP5 ADD SWAP2 SWAP1 SWAP2 MSTORE PUSH1 0x60 DUP4 ADD MSTORE ISZERO ISZERO PUSH1 0x80 DUP3 ADD MSTORE PUSH1 0xA0 ADD PUSH2 0x284 JUMP JUMPDEST CALLVALUE DUP1 ISZERO PUSH2 0x60D JUMPI PUSH1 0x0 DUP1 REVERT JUMPDEST POP PUSH2 0x391 PUSH2 0x61C CALLDATASIZE PUSH1 0x4 PUSH2 0x1626 JUMP JUMPDEST PUSH1 0x3 PUSH1 0x20 MSTORE PUSH1 0x0 SWAP1 DUP2 MSTORE PUSH1 0x40 SWAP1 KECCAK256 SLOAD DUP2 JUMP JUMPDEST PUSH1 0x5 SLOAD PUSH1 0x1 PUSH1 0x1 PUSH1 0xA0 SHL SUB AND CALLER EQ PUSH2 0x679 JUMPI PUSH1 0x40 MLOAD PUSH3 0x461BCD PUSH1 0xE5 SHL DUP2 MSTORE PUSH1 0x20 PUSH1 0x4 DUP3 ADD MSTORE PUSH1 0x9 PUSH1 0x24 DUP3 ADD MSTORE PUSH9 0x2737BA1037BBB732B9 PUSH1 0xB9 SHL PUSH1 0x44 DUP3 ADD MSTORE PUSH1 0x64 ADD JUMPDEST PUSH1 0x40 MLOAD DUP1 SWAP2 SUB SWAP1 REVERT JUMPDEST PUSH1 0x1 PUSH1 0x1 PUSH1 0xA0 SHL SUB DUP3 AND PUSH1 0x0 DUP2 DUP2 MSTORE PUSH1 0x4 PUSH1 0x20 SWAP1 DUP2 MSTORE PUSH1 0x40 SWAP2 DUP3 SWAP1 KECCAK256 DUP1 SLOAD PUSH1 0xFF NOT AND DUP6 ISZERO ISZERO SWAP1 DUP2 OR SWAP1 SWAP2 SSTORE DUP3 MLOAD SWAP4 DUP5 MSTORE SWAP1 DUP4 ADD MSTORE PUSH32 0x5D6CEDE305E41196D5ADF3679D914166C52F2892E71781EF6FC51CB9DF5B3407 SWAP2 ADD PUSH1 0x40 MLOAD DUP1 SWAP2 SUB SWAP1 LOG1 POP POP JUMP JUMPDEST DUP2 PUSH1 0x0 SLOAD DUP2 LT PUSH2 0x6FE JUMPI PUSH1 0x40 MLOAD PUSH3 0x461BCD PUSH1 0xE5 SHL DUP2 MSTORE PUSH1 0x4 ADD PUSH2 0x670 SWAP1 PUSH2 0x17BF JUMP JUMPDEST PUSH1 0x0 DUP4 DUP2 MSTORE PUSH1 0x1 PUSH1 0x20 MSTORE PUSH1 0x40 SWAP1 KECCAK256 SLOAD PUSH1 0x1 PUSH1 0x1 PUSH1 0xA0 SHL SUB AND CALLER EQ PUSH2 0x750 JUMPI PUSH1 0x40 MLOAD PUSH3 0x461BCD PUSH1 0xE5 SHL DUP2 MSTORE PUSH1 0x20 PUSH1 0x4 DUP3 ADD MSTORE PUSH1 0x9 PUSH1 0x24 DUP3 ADD MSTORE PUSH9 0x2737BA103830BCB2B9 PUSH1 0xB9 SHL PUSH1 0x44 DUP3 ADD MSTORE PUSH1 0x64 ADD PUSH2 0x670 JUMP JUMPDEST PUSH1 0x0 DUP4 DUP2 MSTORE PUSH1 0x1 PUSH1 0x20 SWAP1 DUP2 MSTORE PUSH1 0x40 SWAP2 DUP3 SWAP1 KECCAK256 PUSH1 0x8 ADD DUP1 SLOAD PUSH1 0x1 PUSH1 0x1 PUSH1 0xA0 SHL SUB NOT AND PUSH1 0x1 PUSH1 0x1 PUSH1 0xA0 SHL SUB DUP7 AND SWAP1 DUP2 OR SWAP1 SWAP2 SSTORE SWAP2 MLOAD SWAP2 DUP3 MSTORE DUP5 SWAP2 PUSH32 0x8411A90E3E3862B98B3D993B4C12A39B041675C901901EDCC0827FA827E3622B SWAP2 ADD JUMPDEST PUSH1 0x40 MLOAD DUP1 SWAP2 SUB SWAP1 LOG2 POP POP POP JUMP JUMPDEST PUSH2 0x7C1 PUSH2 0x14A6 JUMP JUMPDEST DUP1 PUSH1 0x0 SLOAD DUP2 LT PUSH2 0x7E3 JUMPI PUSH1 0x40 MLOAD PUSH3 0x461BCD PUSH1 0xE5 SHL DUP2 MSTORE PUSH1 0x4 ADD PUSH2 0x670 SWAP1 PUSH2 0x17BF JUMP JUMPDEST PUSH1 0x0 DUP3 DUP2 MSTORE PUSH1 0x1 PUSH1 0x20 SWAP1 DUP2 MSTORE PUSH1 0x40 DUP1 DUP4 KECCAK256 CALLER DUP5 MSTORE PUSH1 0x4 SWAP1 SWAP3 MSTORE SWAP1 SWAP2 KECCAK256 SLOAD PUSH1 0xFF AND DUP1 PUSH2 0x81A JUMPI POP PUSH1 0x8 DUP2 ADD SLOAD PUSH1 0x1 PUSH1 0x1 PUSH1 0xA0 SHL SUB AND CALLER EQ JUMPDEST PUSH2 0x866 JUMPI PUSH1 0x40 MLOAD PUSH3 0x461BCD PUSH1 0xE5 SHL DUP2 MSTORE PUSH1 0x20 PUSH1 0x4 DUP3 ADD MSTORE PUSH1 0x17 PUSH1 0x24 DUP3 ADD MSTORE PUSH32 0x4E6F7420617574686F72697A6564206578656375746F72000000000000000000 PUSH1 0x44 DUP3 ADD MSTORE PUSH1 0x64 ADD PUSH2 0x670 JUMP JUMPDEST PUSH1 0x8 DUP2 ADD SLOAD PUSH1 0x1 PUSH1 0xA0 SHL SWAP1 DIV PUSH1 0xFF AND PUSH2 0x8B9 JUMPI PUSH1 0x40 MLOAD PUSH3 0x461BCD PUSH1 0xE5 SHL DUP2 MSTORE PUSH1 0x20 PUSH1 0x4 DUP3 ADD MSTORE PUSH1 0x15 PUSH1 0x24 DUP3 ADD MSTORE PUSH21 0x537562736372697074696F6E20696E616374697665 PUSH1 0x58 SHL PUSH1 0x44 DUP3 ADD MSTORE PUSH1 0x64 ADD PUSH2 0x670 JUMP JUMPDEST DUP1 PUSH1 0x5 ADD SLOAD TIMESTAMP LT ISZERO PUSH2 0x903 JUMPI PUSH1 0x40 MLOAD PUSH3 0x461BCD PUSH1 0xE5 SHL DUP2 MSTORE PUSH1 0x20 PUSH1 0x4 DUP3 ADD MSTORE PUSH1 0x13 PUSH1 0x24 DUP3 ADD MSTORE PUSH19 0x14185E5B595B9D081B9BDD08191D59481E595D PUSH1 0x6A SHL PUSH1 0x44 DUP3 ADD MSTORE PUSH1 0x64 ADD PUSH2 0x670 JUMP JUMPDEST PUSH1 0x6 DUP2 ADD SLOAD ISZERO PUSH2 0x969 JUMPI DUP1 PUSH1 0x6 ADD SLOAD DUP2 PUSH1 0x3 ADD SLOAD DUP3 PUSH1 0x7 ADD SLOAD PUSH2 0x926 SWAP2 SWAP1 PUSH2 0x17FC JUMP JUMPDEST GT ISZERO PUSH2 0x969 JUMPI PUSH1 0x40 MLOAD PUSH3 0x461BCD PUSH1 0xE5 SHL DUP2 MSTORE PUSH1 0x20 PUSH1 0x4 DUP3 ADD MSTORE PUSH1 0x12 PUSH1 0x24 DUP3 ADD MSTORE PUSH18 0x151BDD185B0818D85C08195E18D959591959 PUSH1 0x72 SHL PUSH1 0x44 DUP3 ADD MSTORE PUSH1 0x64 ADD PUSH2 0x670 JUMP JUMPDEST PUSH1 0x0 DUP4 DUP2 MSTORE PUSH1 0x3 PUSH1 0x20 MSTORE PUSH1 0x40 DUP2 KECCAK256 DUP1 SLOAD DUP3 SWAP1 PUSH2 0x984 SWAP1 PUSH2 0x180F JUMP JUMPDEST SWAP2 SWAP1 POP DUP2 SWAP1 SSTORE SWAP1 POP DUP2 PUSH1 0x3 ADD SLOAD DUP3 PUSH1 0x7 ADD PUSH1 0x0 DUP3 DUP3 SLOAD PUSH2 0x9A4 SWAP2 SWAP1 PUSH2 0x17FC JUMP JUMPDEST SWAP1 SWAP2 SSTORE POP POP PUSH1 0x4 DUP3 ADD SLOAD PUSH2 0x9B8 SWAP1 TIMESTAMP PUSH2 0x17FC JUMP JUMPDEST PUSH1 0x5 DUP4 ADD SSTORE PUSH1 0x40 DUP1 MLOAD PUSH1 0xA0 DUP2 ADD DUP3 MSTORE DUP6 DUP2 MSTORE PUSH1 0x20 DUP1 DUP3 ADD DUP5 DUP2 MSTORE PUSH1 0x3 DUP1 DUP8 ADD DUP1 SLOAD DUP6 DUP8 ADD SWAP1 DUP2 MSTORE TIMESTAMP PUSH1 0x60 DUP8 ADD SWAP1 DUP2 MSTORE PUSH1 0x0 PUSH1 0x80 DUP9 ADD DUP2 DUP2 MSTORE DUP14 DUP3 MSTORE PUSH1 0x2 DUP1 DUP10 MSTORE DUP11 DUP4 KECCAK256 DUP13 DUP5 MSTORE SWAP1 SWAP9 MSTORE SWAP9 SWAP1 KECCAK256 SWAP7 MLOAD DUP8 SSTORE SWAP4 MLOAD PUSH1 0x1 DUP1 DUP9 ADD SWAP2 SWAP1 SWAP2 SSTORE SWAP1 MLOAD DUP7 DUP7 ADD SSTORE SWAP3 MLOAD SWAP2 DUP6 ADD SWAP2 SWAP1 SWAP2 SSTORE SWAP4 MLOAD PUSH1 0x4 SWAP1 SWAP4 ADD DUP1 SLOAD PUSH1 0xFF NOT AND SWAP4 ISZERO ISZERO SWAP4 SWAP1 SWAP4 OR SWAP1 SWAP3 SSTORE DUP5 SLOAD SWAP2 DUP6 ADD SLOAD SWAP3 SLOAD SWAP1 DUP6 ADD SLOAD PUSH2 0xA60 SWAP4 PUSH1 0x1 PUSH1 0x1 PUSH1 0xA0 SHL SUB SWAP2 DUP3 AND SWAP4 DUP3 AND SWAP3 SWAP2 AND SWAP1 PUSH2 0x14C2 JUMP JUMPDEST PUSH1 0x3 DUP3 ADD SLOAD PUSH1 0x40 DUP1 MLOAD SWAP2 DUP3 MSTORE TIMESTAMP PUSH1 0x20 DUP4 ADD MSTORE CALLER SWAP2 DUP4 SWAP2 DUP8 SWAP2 PUSH32 0x2727CAF80B6DA2DFA4408DF2026C1FE59761D4B9184F422B225772BB9C3B7EE2 SWAP2 ADD PUSH1 0x40 MLOAD DUP1 SWAP2 SUB SWAP1 LOG4 POP POP POP PUSH2 0xABD PUSH1 0x1 PUSH1 0x0 DUP1 MLOAD PUSH1 0x20 PUSH2 0x183C DUP4 CODECOPY DUP2 MLOAD SWAP2 MSTORE SSTORE JUMP JUMPDEST POP JUMP JUMPDEST DUP1 PUSH1 0x0 SLOAD DUP2 LT PUSH2 0xAE2 JUMPI PUSH1 0x40 MLOAD PUSH3 0x461BCD PUSH1 0xE5 SHL DUP2 MSTORE PUSH1 0x4 ADD PUSH2 0x670 SWAP1 PUSH2 0x17BF JUMP JUMPDEST PUSH1 0x0 DUP3 DUP2 MSTORE PUSH1 0x1 PUSH1 0x20 MSTORE PUSH1 0x40 SWAP1 KECCAK256 DUP1 SLOAD PUSH1 0x1 PUSH1 0x1 PUSH1 0xA0 SHL SUB AND CALLER EQ DUP1 PUSH2 0xB14 JUMPI POP PUSH1 0x8 DUP2 ADD SLOAD PUSH1 0x1 PUSH1 0x1 PUSH1 0xA0 SHL SUB AND CALLER EQ JUMPDEST DUP1 PUSH2 0xB2E JUMPI POP CALLER PUSH1 0x0 SWAP1 DUP2 MSTORE PUSH1 0x4 PUSH1 0x20 MSTORE PUSH1 0x40 SWAP1 KECCAK256 SLOAD PUSH1 0xFF AND JUMPDEST PUSH2 0xB6B JUMPI PUSH1 0x40 MLOAD PUSH3 0x461BCD PUSH1 0xE5 SHL DUP2 MSTORE PUSH1 0x20 PUSH1 0x4 DUP3 ADD MSTORE PUSH1 0xE PUSH1 0x24 DUP3 ADD MSTORE PUSH14 0x139BDD08185D5D1A1BDC9A5E9959 PUSH1 0x92 SHL PUSH1 0x44 DUP3 ADD MSTORE PUSH1 0x64 ADD PUSH2 0x670 JUMP JUMPDEST PUSH1 0x8 DUP2 ADD DUP1 SLOAD PUSH1 0xFF PUSH1 0xA0 SHL NOT AND SWAP1 SSTORE PUSH1 0x40 MLOAD CALLER DUP2 MSTORE DUP4 SWAP1 PUSH32 0x533734A768F070673B823079652464B7E002BB51CDF15E3108209F397425225F SWAP1 PUSH1 0x20 ADD PUSH2 0x7AC JUMP JUMPDEST PUSH2 0xBE0 PUSH1 0x40 MLOAD DUP1 PUSH1 0xA0 ADD PUSH1 0x40 MSTORE DUP1 PUSH1 0x0 DUP2 MSTORE PUSH1 0x20 ADD PUSH1 0x0 DUP2 MSTORE PUSH1 0x20 ADD PUSH1 0x0 DUP2 MSTORE PUSH1 0x20 ADD PUSH1 0x0 DUP2 MSTORE PUSH1 0x20 ADD PUSH1 0x0 ISZERO ISZERO DUP2 MSTORE POP SWAP1 JUMP JUMPDEST POP PUSH1 0x0 DUP3 DUP2 MSTORE PUSH1 0x2 PUSH1 0x20 DUP2 DUP2 MSTORE PUSH1 0x40 DUP1 DUP5 KECCAK256 DUP6 DUP6 MSTORE DUP3 MSTORE SWAP3 DUP4 SWAP1 KECCAK256 DUP4 MLOAD PUSH1 0xA0 DUP2 ADD DUP6 MSTORE DUP2 SLOAD DUP2 MSTORE PUSH1 0x1 DUP3 ADD SLOAD SWAP3 DUP2 ADD SWAP3 SWAP1 SWAP3 MSTORE SWAP2 DUP3 ADD SLOAD SWAP3 DUP2 ADD SWAP3 SWAP1 SWAP3 MSTORE PUSH1 0x3 DUP2 ADD SLOAD PUSH1 0x60 DUP4 ADD MSTORE PUSH1 0x4 ADD SLOAD PUSH1 0xFF AND ISZERO ISZERO PUSH1 0x80 DUP3 ADD MSTORE JUMPDEST SWAP3 SWAP2 POP POP JUMP JUMPDEST PUSH2 0xC45 PUSH2 0x14A6 JUMP JUMPDEST CALLER PUSH1 0x0 SWAP1 DUP2 MSTORE PUSH1 0x6 PUSH1 0x20 MSTORE PUSH1 0x40 SWAP1 KECCAK256 SLOAD DUP2 GT ISZERO PUSH2 0xC9B JUMPI PUSH1 0x40 MLOAD PUSH3 0x461BCD PUSH1 0xE5 SHL DUP2 MSTORE PUSH1 0x20 PUSH1 0x4 DUP3 ADD MSTORE PUSH1 0x14 PUSH1 0x24 DUP3 ADD MSTORE PUSH20 0x496E73756666696369656E742062616C616E6365 PUSH1 0x60 SHL PUSH1 0x44 DUP3 ADD MSTORE PUSH1 0x64 ADD PUSH2 0x670 JUMP JUMPDEST CALLER PUSH1 0x0 SWAP1 DUP2 MSTORE PUSH1 0x6 PUSH1 0x20 MSTORE PUSH1 0x40 DUP2 KECCAK256 DUP1 SLOAD DUP4 SWAP3 SWAP1 PUSH2 0xCBA SWAP1 DUP5 SWAP1 PUSH2 0x1828 JUMP JUMPDEST SWAP1 SWAP2 SSTORE POP POP PUSH1 0x40 MLOAD PUSH1 0x0 SWAP1 CALLER SWAP1 DUP4 SWAP1 DUP4 DUP2 DUP2 DUP2 DUP6 DUP8 GAS CALL SWAP3 POP POP POP RETURNDATASIZE DUP1 PUSH1 0x0 DUP2 EQ PUSH2 0xD01 JUMPI PUSH1 0x40 MLOAD SWAP2 POP PUSH1 0x1F NOT PUSH1 0x3F RETURNDATASIZE ADD AND DUP3 ADD PUSH1 0x40 MSTORE RETURNDATASIZE DUP3 MSTORE RETURNDATASIZE PUSH1 0x0 PUSH1 0x20 DUP5 ADD RETURNDATACOPY PUSH2 0xD06 JUMP JUMPDEST PUSH1 0x60 SWAP2 POP JUMPDEST POP POP SWAP1 POP DUP1 PUSH2 0xD4D JUMPI PUSH1 0x40 MLOAD PUSH3 0x461BCD PUSH1 0xE5 SHL DUP2 MSTORE PUSH1 0x20 PUSH1 0x4 DUP3 ADD MSTORE PUSH1 0x13 PUSH1 0x24 DUP3 ADD MSTORE PUSH19 0x115512081D1C985B9CD9995C8819985A5B1959 PUSH1 0x6A SHL PUSH1 0x44 DUP3 ADD MSTORE PUSH1 0x64 ADD PUSH2 0x670 JUMP JUMPDEST PUSH1 0x40 MLOAD DUP3 DUP2 MSTORE CALLER SWAP1 PUSH32 0x4BCE4A4CA68D82B29C04A390AC4303F7079CF9028D69784BF345E07AE54DC789 SWAP1 PUSH1 0x20 ADD PUSH1 0x40 MLOAD DUP1 SWAP2 SUB SWAP1 LOG2 POP PUSH2 0xABD PUSH1 0x1 PUSH1 0x0 DUP1 MLOAD PUSH1 0x20 PUSH2 0x183C DUP4 CODECOPY DUP2 MLOAD SWAP2 MSTORE SSTORE JUMP JUMPDEST PUSH1 0x0 DUP2 PUSH1 0x0 SLOAD DUP2 LT PUSH2 0xDBE JUMPI PUSH1 0x40 MLOAD PUSH3 0x461BCD PUSH1 0xE5 SHL DUP2 MSTORE PUSH1 0x4 ADD PUSH2 0x670 SWAP1 PUSH2 0x17BF JUMP JUMPDEST PUSH1 0x0 DUP4 DUP2 MSTORE PUSH1 0x1 PUSH1 0x20 MSTORE PUSH1 0x40 SWAP1 KECCAK256 PUSH1 0x8 DUP2 ADD SLOAD PUSH1 0x1 PUSH1 0xA0 SHL SWAP1 DIV PUSH1 0xFF AND DUP1 ISZERO PUSH2 0xDEB JUMPI POP DUP1 PUSH1 0x5 ADD SLOAD TIMESTAMP LT ISZERO JUMPDEST SWAP5 SWAP4 POP POP POP POP JUMP JUMPDEST PUSH1 0x0 PUSH1 0x1 PUSH1 0x1 PUSH1 0xA0 SHL SUB DUP8 AND PUSH2 0xE3C JUMPI PUSH1 0x40 MLOAD PUSH3 0x461BCD PUSH1 0xE5 SHL DUP2 MSTORE PUSH1 0x20 PUSH1 0x4 DUP3 ADD MSTORE PUSH1 0xE PUSH1 0x24 DUP3 ADD MSTORE PUSH14 0x16995C9BC81C9958DA5C1A595B9D PUSH1 0x92 SHL PUSH1 0x44 DUP3 ADD MSTORE PUSH1 0x64 ADD PUSH2 0x670 JUMP JUMPDEST PUSH1 0x1 PUSH1 0x1 PUSH1 0xA0 SHL SUB DUP7 AND PUSH2 0xE7F JUMPI PUSH1 0x40 MLOAD PUSH3 0x461BCD PUSH1 0xE5 SHL DUP2 MSTORE PUSH1 0x20 PUSH1 0x4 DUP3 ADD MSTORE PUSH1 0xA PUSH1 0x24 DUP3 ADD MSTORE PUSH10 0x2D32B937903A37B5B2B7 PUSH1 0xB1 SHL PUSH1 0x44 DUP3 ADD MSTORE PUSH1 0x64 ADD PUSH2 0x670 JUMP JUMPDEST PUSH1 0x0 DUP6 GT PUSH2 0xEBD JUMPI PUSH1 0x40 MLOAD PUSH3 0x461BCD PUSH1 0xE5 SHL DUP2 MSTORE PUSH1 0x20 PUSH1 0x4 DUP3 ADD MSTORE PUSH1 0xB PUSH1 0x24 DUP3 ADD MSTORE PUSH11 0x16995C9BC8185B5BDD5B9D PUSH1 0xAA SHL PUSH1 0x44 DUP3 ADD MSTORE PUSH1 0x64 ADD PUSH2 0x670 JUMP JUMPDEST PUSH1 0x0 DUP5 GT PUSH2 0xEFD JUMPI PUSH1 0x40 MLOAD PUSH3 0x461BCD PUSH1 0xE5 SHL DUP2 MSTORE PUSH1 0x20 PUSH1 0x4 DUP3 ADD MSTORE PUSH1 0xD PUSH1 0x24 DUP3 ADD MSTORE PUSH13 0x16995C9BC81A5B9D195C9D985B PUSH1 0x9A SHL PUSH1 0x44 DUP3 ADD MSTORE PUSH1 0x64 ADD PUSH2 0x670 JUMP JUMPDEST PUSH1 0x0 DUP1 SLOAD SWAP1 DUP1 PUSH2 0xF0C DUP4 PUSH2 0x180F JUMP JUMPDEST SWAP2 SWAP1 POP SSTORE SWAP1 POP PUSH1 0x40 MLOAD DUP1 PUSH2 0x140 ADD PUSH1 0x40 MSTORE DUP1 CALLER PUSH1 0x1 PUSH1 0x1 PUSH1 0xA0 SHL SUB AND DUP2 MSTORE PUSH1 0x20 ADD DUP9 PUSH1 0x1 PUSH1 0x1 PUSH1 0xA0 SHL SUB AND DUP2 MSTORE PUSH1 0x20 ADD DUP8 PUSH1 0x1 PUSH1 0x1 PUSH1 0xA0 SHL SUB AND DUP2 MSTORE PUSH1 0x20 ADD DUP7 DUP2 MSTORE PUSH1 0x20 ADD DUP6 DUP2 MSTORE PUSH1 0x20 ADD TIMESTAMP DUP2 MSTORE PUSH1 0x20 ADD DUP5 DUP2 MSTORE PUSH1 0x20 ADD PUSH1 0x0 DUP2 MSTORE PUSH1 0x20 ADD DUP4 PUSH1 0x1 PUSH1 0x1 PUSH1 0xA0 SHL SUB AND DUP2 MSTORE PUSH1 0x20 ADD PUSH1 0x1 ISZERO ISZERO DUP2 MSTORE POP PUSH1 0x1 PUSH1 0x0 DUP4 DUP2 MSTORE PUSH1 0x20 ADD SWAP1 DUP2 MSTORE PUSH1 0x20 ADD PUSH1 0x0 KECCAK256 PUSH1 0x0 DUP3 ADD MLOAD DUP2 PUSH1 0x0 ADD PUSH1 0x0 PUSH2 0x100 EXP DUP2 SLOAD DUP2 PUSH1 0x1 PUSH1 0x1 PUSH1 0xA0 SHL SUB MUL NOT AND SWAP1 DUP4 PUSH1 0x1 PUSH1 0x1 PUSH1 0xA0 SHL SUB AND MUL OR SWAP1 SSTORE POP PUSH1 0x20 DUP3 ADD MLOAD DUP2 PUSH1 0x1 ADD PUSH1 0x0 PUSH2 0x100 EXP DUP2 SLOAD DUP2 PUSH1 0x1 PUSH1 0x1 PUSH1 0xA0 SHL SUB MUL NOT AND SWAP1 DUP4 PUSH1 0x1 PUSH1 0x1 PUSH1 0xA0 SHL SUB AND MUL OR SWAP1 SSTORE POP PUSH1 0x40 DUP3 ADD MLOAD DUP2 PUSH1 0x2 ADD PUSH1 0x0 PUSH2 0x100 EXP DUP2 SLOAD DUP2 PUSH1 0x1 PUSH1 0x1 PUSH1 0xA0 SHL SUB MUL NOT AND SWAP1 DUP4 PUSH1 0x1 PUSH1 0x1 PUSH1 0xA0 SHL SUB AND MUL OR SWAP1 SSTORE POP PUSH1 0x60 DUP3 ADD MLOAD DUP2 PUSH1 0x3 ADD SSTORE PUSH1 0x80 DUP3 ADD MLOAD DUP2 PUSH1 0x4 ADD SSTORE PUSH1 0xA0 DUP3 ADD MLOAD DUP2 PUSH1 0x5 ADD SSTORE PUSH1 0xC0 DUP3 ADD MLOAD DUP2 PUSH1 0x6 ADD SSTORE PUSH1 0xE0 DUP3 ADD MLOAD DUP2 PUSH1 0x7 ADD SSTORE PUSH2 0x100 DUP3 ADD MLOAD DUP2 PUSH1 0x8 ADD PUSH1 0x0 PUSH2 0x100 EXP DUP2 SLOAD DUP2 PUSH1 0x1 PUSH1 0x1 PUSH1 0xA0 SHL SUB MUL NOT AND SWAP1 DUP4 PUSH1 0x1 PUSH1 0x1 PUSH1 0xA0 SHL SUB AND MUL OR SWAP1 SSTORE POP PUSH2 0x120 DUP3 ADD MLOAD DUP2 PUSH1 0x8 ADD PUSH1 0x14 PUSH2 0x100 EXP DUP2 SLOAD DUP2 PUSH1 0xFF MUL NOT AND SWAP1 DUP4 ISZERO ISZERO MUL OR SWAP1 SSTORE POP SWAP1 POP POP DUP7 PUSH1 0x1 PUSH1 0x1 PUSH1 0xA0 SHL SUB AND CALLER PUSH1 0x1 PUSH1 0x1 PUSH1 0xA0 SHL SUB AND DUP3 PUSH32 0x3A1D21BECE43C85B5A9AFDB7EC13187791F0D64DEC190A38B6FB0EA242CF49BF DUP10 DUP10 DUP10 DUP10 PUSH1 0x40 MLOAD PUSH2 0x1109 SWAP5 SWAP4 SWAP3 SWAP2 SWAP1 PUSH1 0x1 PUSH1 0x1 PUSH1 0xA0 SHL SUB SWAP5 SWAP1 SWAP5 AND DUP5 MSTORE PUSH1 0x20 DUP5 ADD SWAP3 SWAP1 SWAP3 MSTORE PUSH1 0x40 DUP4 ADD MSTORE PUSH1 0x60 DUP3 ADD MSTORE PUSH1 0x80 ADD SWAP1 JUMP JUMPDEST PUSH1 0x40 MLOAD DUP1 SWAP2 SUB SWAP1 LOG4 SWAP7 SWAP6 POP POP POP POP POP POP JUMP JUMPDEST CALLER PUSH1 0x0 SWAP1 DUP2 MSTORE PUSH1 0x4 PUSH1 0x20 MSTORE PUSH1 0x40 SWAP1 KECCAK256 SLOAD PUSH1 0xFF AND PUSH2 0x116A JUMPI PUSH1 0x40 MLOAD PUSH3 0x461BCD PUSH1 0xE5 SHL DUP2 MSTORE PUSH1 0x20 PUSH1 0x4 DUP3 ADD MSTORE PUSH1 0xD PUSH1 0x24 DUP3 ADD MSTORE PUSH13 0x2737BA103090313AB7323632B9 PUSH1 0x99 SHL PUSH1 0x44 DUP3 ADD MSTORE PUSH1 0x64 ADD PUSH2 0x670 JUMP JUMPDEST PUSH1 0x1 PUSH1 0x1 PUSH1 0xA0 SHL SUB DUP3 AND PUSH1 0x0 SWAP1 DUP2 MSTORE PUSH1 0x6 PUSH1 0x20 MSTORE PUSH1 0x40 SWAP1 KECCAK256 SLOAD DUP2 GT ISZERO PUSH2 0x11D2 JUMPI PUSH1 0x40 MLOAD PUSH3 0x461BCD PUSH1 0xE5 SHL DUP2 MSTORE PUSH1 0x20 PUSH1 0x4 DUP3 ADD MSTORE PUSH1 0x1E PUSH1 0x24 DUP3 ADD MSTORE PUSH32 0x496E73756666696369656E74207061796D61737465722062616C616E63650000 PUSH1 0x44 DUP3 ADD MSTORE PUSH1 0x64 ADD PUSH2 0x670 JUMP JUMPDEST PUSH1 0x1 PUSH1 0x1 PUSH1 0xA0 SHL SUB DUP3 AND PUSH1 0x0 SWAP1 DUP2 MSTORE PUSH1 0x6 PUSH1 0x20 MSTORE PUSH1 0x40 DUP2 KECCAK256 DUP1 SLOAD DUP4 SWAP3 SWAP1 PUSH2 0x11FA SWAP1 DUP5 SWAP1 PUSH2 0x1828 JUMP JUMPDEST SWAP1 SWAP2 SSTORE POP POP POP POP JUMP JUMPDEST PUSH2 0x120B PUSH2 0x14A6 JUMP JUMPDEST DUP2 PUSH1 0x0 SLOAD DUP2 LT PUSH2 0x122D JUMPI PUSH1 0x40 MLOAD PUSH3 0x461BCD PUSH1 0xE5 SHL DUP2 MSTORE PUSH1 0x4 ADD PUSH2 0x670 SWAP1 PUSH2 0x17BF JUMP JUMPDEST PUSH1 0x0 DUP4 DUP2 MSTORE PUSH1 0x1 PUSH1 0x20 DUP2 SWAP1 MSTORE PUSH1 0x40 SWAP1 SWAP2 KECCAK256 SWAP1 DUP2 ADD SLOAD PUSH1 0x1 PUSH1 0x1 PUSH1 0xA0 SHL SUB AND CALLER EQ PUSH2 0x128D JUMPI PUSH1 0x40 MLOAD PUSH3 0x461BCD PUSH1 0xE5 SHL DUP2 MSTORE PUSH1 0x20 PUSH1 0x4 DUP3 ADD MSTORE PUSH1 0x11 PUSH1 0x24 DUP3 ADD MSTORE PUSH17 0x139BDD081D1A19481C9958DA5C1A595B9D PUSH1 0x7A SHL PUSH1 0x44 DUP3 ADD MSTORE PUSH1 0x64 ADD PUSH2 0x670 JUMP JUMPDEST PUSH1 0x0 DUP5 DUP2 MSTORE PUSH1 0x2 PUSH1 0x20 DUP2 DUP2 MSTORE PUSH1 0x40 DUP1 DUP5 KECCAK256 DUP8 DUP6 MSTORE SWAP1 SWAP2 MSTORE SWAP1 SWAP2 KECCAK256 SWAP1 DUP2 ADD SLOAD PUSH2 0x12EB JUMPI PUSH1 0x40 MLOAD PUSH3 0x461BCD PUSH1 0xE5 SHL DUP2 MSTORE PUSH1 0x20 PUSH1 0x4 DUP3 ADD MSTORE PUSH1 0x11 PUSH1 0x24 DUP3 ADD MSTORE PUSH17 0x139BC81C185E5B595B9D081C9958DBDC99 PUSH1 0x7A SHL PUSH1 0x44 DUP3 ADD MSTORE PUSH1 0x64 ADD PUSH2 0x670 JUMP JUMPDEST PUSH1 0x4 DUP2 ADD SLOAD PUSH1 0xFF AND ISZERO PUSH2 0x1333 JUMPI PUSH1 0x40 MLOAD PUSH3 0x461BCD PUSH1 0xE5 SHL DUP2 MSTORE PUSH1 0x20 PUSH1 0x4 DUP3 ADD MSTORE PUSH1 0x10 PUSH1 0x24 DUP3 ADD MSTORE PUSH16 0x105B1C9958591E481C99599D5B991959 PUSH1 0x82 SHL PUSH1 0x44 DUP3 ADD MSTORE PUSH1 0x64 ADD PUSH2 0x670 JUMP JUMPDEST PUSH1 0x4 DUP2 ADD DUP1 SLOAD PUSH1 0xFF NOT AND PUSH1 0x1 OR SWAP1 SSTORE PUSH1 0x2 DUP2 ADD SLOAD PUSH1 0x7 DUP4 ADD SLOAD LT PUSH2 0x136F JUMPI DUP1 PUSH1 0x2 ADD SLOAD DUP3 PUSH1 0x7 ADD PUSH1 0x0 DUP3 DUP3 SLOAD PUSH2 0x1369 SWAP2 SWAP1 PUSH2 0x1828 JUMP JUMPDEST SWAP1 SWAP2 SSTORE POP POP JUMPDEST PUSH1 0x1 DUP3 ADD SLOAD DUP3 SLOAD PUSH1 0x2 DUP1 DUP5 ADD SLOAD SWAP1 DUP6 ADD SLOAD PUSH2 0x139C SWAP4 PUSH1 0x1 PUSH1 0x1 PUSH1 0xA0 SHL SUB SWAP2 DUP3 AND SWAP4 SWAP1 DUP3 AND SWAP3 SWAP2 AND SWAP1 PUSH2 0x14C2 JUMP JUMPDEST DUP4 DUP6 PUSH32 0xD873FE5F6868437FEB15563953001C95C36D7FE14C7C6C13392C0143DC4AD73 DUP4 PUSH1 0x2 ADD SLOAD PUSH1 0x40 MLOAD PUSH2 0x13D3 SWAP2 DUP2 MSTORE PUSH1 0x20 ADD SWAP1 JUMP JUMPDEST PUSH1 0x40 MLOAD DUP1 SWAP2 SUB SWAP1 LOG3 POP POP POP PUSH2 0x13F5 PUSH1 0x1 PUSH1 0x0 DUP1 MLOAD PUSH1 0x20 PUSH2 0x183C DUP4 CODECOPY DUP2 MLOAD SWAP2 MSTORE SSTORE JUMP JUMPDEST POP POP JUMP JUMPDEST PUSH1 0x0 CALLVALUE GT PUSH2 0x1438 JUMPI PUSH1 0x40 MLOAD PUSH3 0x461BCD PUSH1 0xE5 SHL DUP2 MSTORE PUSH1 0x20 PUSH1 0x4 DUP3 ADD MSTORE PUSH1 0xC PUSH1 0x24 DUP3 ADD MSTORE PUSH12 0x16995C9BC819195C1BDCDA5D PUSH1 0xA2 SHL PUSH1 0x44 DUP3 ADD MSTORE PUSH1 0x64 ADD PUSH2 0x670 JUMP JUMPDEST PUSH1 0x1 PUSH1 0x1 PUSH1 0xA0 SHL SUB DUP2 AND PUSH1 0x0 SWAP1 DUP2 MSTORE PUSH1 0x6 PUSH1 0x20 MSTORE PUSH1 0x40 DUP2 KECCAK256 DUP1 SLOAD CALLVALUE SWAP3 SWAP1 PUSH2 0x1460 SWAP1 DUP5 SWAP1 PUSH2 0x17FC JUMP JUMPDEST SWAP1 SWAP2 SSTORE POP POP PUSH1 0x40 MLOAD CALLVALUE DUP2 MSTORE PUSH1 0x1 PUSH1 0x1 PUSH1 0xA0 SHL SUB DUP3 AND SWAP1 PUSH32 0xBC7CA18AABAED00211FCDEAB040A07BAB11E595AE73F83568CF0DDA3D4010EA0 SWAP1 PUSH1 0x20 ADD PUSH1 0x40 MLOAD DUP1 SWAP2 SUB SWAP1 LOG2 POP JUMP JUMPDEST PUSH2 0x14AE PUSH2 0x14FE JUMP JUMPDEST PUSH1 0x2 PUSH1 0x0 DUP1 MLOAD PUSH1 0x20 PUSH2 0x183C DUP4 CODECOPY DUP2 MLOAD SWAP2 MSTORE SSTORE JUMP JUMPDEST PUSH2 0x14D0 DUP5 DUP5 DUP5 DUP5 PUSH1 0x1 PUSH2 0x1530 JUMP JUMPDEST PUSH2 0x14F8 JUMPI PUSH1 0x40 MLOAD PUSH4 0x5274AFE7 PUSH1 0xE0 SHL DUP2 MSTORE PUSH1 0x1 PUSH1 0x1 PUSH1 0xA0 SHL SUB DUP6 AND PUSH1 0x4 DUP3 ADD MSTORE PUSH1 0x24 ADD PUSH2 0x670 JUMP JUMPDEST POP POP POP POP JUMP JUMPDEST PUSH1 0x0 DUP1 MLOAD PUSH1 0x20 PUSH2 0x183C DUP4 CODECOPY DUP2 MLOAD SWAP2 MSTORE SLOAD PUSH1 0x2 SUB PUSH2 0x152E JUMPI PUSH1 0x40 MLOAD PUSH4 0x3EE5AEB5 PUSH1 0xE0 SHL DUP2 MSTORE PUSH1 0x4 ADD PUSH1 0x40 MLOAD DUP1 SWAP2 SUB SWAP1 REVERT JUMPDEST JUMP JUMPDEST PUSH1 0x40 MLOAD PUSH4 0x23B872DD PUSH1 0xE0 SHL PUSH1 0x0 DUP2 DUP2 MSTORE PUSH1 0x1 PUSH1 0x1 PUSH1 0xA0 SHL SUB DUP8 DUP2 AND PUSH1 0x4 MSTORE DUP7 AND PUSH1 0x24 MSTORE PUSH1 0x44 DUP6 SWAP1 MSTORE SWAP2 PUSH1 0x20 DUP4 PUSH1 0x64 DUP2 DUP1 DUP13 GAS CALL SWAP3 POP PUSH1 0x1 PUSH1 0x0 MLOAD EQ DUP4 AND PUSH2 0x1590 JUMPI DUP4 DUP4 ISZERO AND ISZERO PUSH2 0x1583 JUMPI RETURNDATASIZE PUSH1 0x0 DUP3 RETURNDATACOPY RETURNDATASIZE DUP2 REVERT JUMPDEST PUSH1 0x0 DUP9 EXTCODESIZE GT RETURNDATASIZE ISZERO AND DUP4 AND SWAP3 POP JUMPDEST PUSH1 0x40 MSTORE POP PUSH1 0x0 PUSH1 0x60 MSTORE SWAP6 SWAP5 POP POP POP POP POP JUMP JUMPDEST DUP1 CALLDATALOAD PUSH1 0x1 PUSH1 0x1 PUSH1 0xA0 SHL SUB DUP2 AND DUP2 EQ PUSH2 0x15B9 JUMPI PUSH1 0x0 DUP1 REVERT JUMPDEST SWAP2 SWAP1 POP JUMP JUMPDEST PUSH1 0x0 DUP1 PUSH1 0x40 DUP4 DUP6 SUB SLT ISZERO PUSH2 0x15D1 JUMPI PUSH1 0x0 DUP1 REVERT JUMPDEST PUSH2 0x15DA DUP4 PUSH2 0x15A2 JUMP JUMPDEST SWAP2 POP PUSH1 0x20 DUP4 ADD CALLDATALOAD DUP1 ISZERO ISZERO DUP2 EQ PUSH2 0x15EF JUMPI PUSH1 0x0 DUP1 REVERT JUMPDEST DUP1 SWAP2 POP POP SWAP3 POP SWAP3 SWAP1 POP JUMP JUMPDEST PUSH1 0x0 DUP1 PUSH1 0x40 DUP4 DUP6 SUB SLT ISZERO PUSH2 0x160D JUMPI PUSH1 0x0 DUP1 REVERT JUMPDEST DUP3 CALLDATALOAD SWAP2 POP PUSH2 0x161D PUSH1 0x20 DUP5 ADD PUSH2 0x15A2 JUMP JUMPDEST SWAP1 POP SWAP3 POP SWAP3 SWAP1 POP JUMP JUMPDEST PUSH1 0x0 PUSH1 0x20 DUP3 DUP5 SUB SLT ISZERO PUSH2 0x1638 JUMPI PUSH1 0x0 DUP1 REVERT JUMPDEST POP CALLDATALOAD SWAP2 SWAP1 POP JUMP JUMPDEST PUSH1 0x0 DUP1 PUSH1 0x40 DUP4 DUP6 SUB SLT ISZERO PUSH2 0x1652 JUMPI PUSH1 0x0 DUP1 REVERT JUMPDEST POP POP DUP1 CALLDATALOAD SWAP3 PUSH1 0x20 SWAP1 SWAP2 ADD CALLDATALOAD SWAP2 POP JUMP JUMPDEST PUSH1 0x0 PUSH1 0x20 DUP3 DUP5 SUB SLT ISZERO PUSH2 0x1673 JUMPI PUSH1 0x0 DUP1 REVERT JUMPDEST PUSH2 0x167C DUP3 PUSH2 0x15A2 JUMP JUMPDEST SWAP4 SWAP3 POP POP POP JUMP JUMPDEST PUSH1 0x0 DUP1 PUSH1 0x0 DUP1 PUSH1 0x0 DUP1 PUSH1 0xC0 DUP8 DUP10 SUB SLT ISZERO PUSH2 0x169C JUMPI PUSH1 0x0 DUP1 REVERT JUMPDEST PUSH2 0x16A5 DUP8 PUSH2 0x15A2 JUMP JUMPDEST SWAP6 POP PUSH2 0x16B3 PUSH1 0x20 DUP9 ADD PUSH2 0x15A2 JUMP JUMPDEST SWAP5 POP PUSH1 0x40 DUP8 ADD CALLDATALOAD SWAP4 POP PUSH1 0x60 DUP8 ADD CALLDATALOAD SWAP3 POP PUSH1 0x80 DUP8 ADD CALLDATALOAD SWAP2 POP PUSH2 0x16D6 PUSH1 0xA0 DUP9 ADD PUSH2 0x15A2 JUMP JUMPDEST SWAP1 POP SWAP3 SWAP6 POP SWAP3 SWAP6 POP SWAP3 SWAP6 JUMP JUMPDEST PUSH1 0x0 DUP1 PUSH1 0x40 DUP4 DUP6 SUB SLT ISZERO PUSH2 0x16F5 JUMPI PUSH1 0x0 DUP1 REVERT JUMPDEST PUSH2 0x16FE DUP4 PUSH2 0x15A2 JUMP JUMPDEST SWAP5 PUSH1 0x20 SWAP4 SWAP1 SWAP4 ADD CALLDATALOAD SWAP4 POP POP POP JUMP JUMPDEST DUP2 MLOAD PUSH1 0x1 PUSH1 0x1 PUSH1 0xA0 SHL SUB AND DUP2 MSTORE PUSH2 0x140 DUP2 ADD PUSH1 0x20 DUP4 ADD MLOAD PUSH2 0x1738 PUSH1 0x20 DUP5 ADD DUP3 PUSH1 0x1 PUSH1 0x1 PUSH1 0xA0 SHL SUB AND SWAP1 MSTORE JUMP JUMPDEST POP PUSH1 0x40 DUP4 ADD MLOAD PUSH2 0x1753 PUSH1 0x40 DUP5 ADD DUP3 PUSH1 0x1 PUSH1 0x1 PUSH1 0xA0 SHL SUB AND SWAP1 MSTORE JUMP JUMPDEST POP PUSH1 0x60 DUP4 ADD MLOAD PUSH1 0x60 DUP4 ADD MSTORE PUSH1 0x80 DUP4 ADD MLOAD PUSH1 0x80 DUP4 ADD MSTORE PUSH1 0xA0 DUP4 ADD MLOAD PUSH1 0xA0 DUP4 ADD MSTORE PUSH1 0xC0 DUP4 ADD MLOAD PUSH1 0xC0 DUP4 ADD MSTORE PUSH1 0xE0 DUP4 ADD MLOAD PUSH1 0xE0 DUP4 ADD MSTORE PUSH2 0x100 DUP4 ADD MLOAD PUSH2 0x17A2 PUSH2 0x100 DUP5 ADD DUP3 PUSH1 0x1 PUSH1 0x1 PUSH1 0xA0 SHL SUB AND SWAP1 MSTORE JUMP JUMPDEST POP PUSH2 0x120 DUP4 ADD MLOAD PUSH2 0x17B8 PUSH2 0x120 DUP5 ADD DUP3 ISZERO ISZERO SWAP1 MSTORE JUMP JUMPDEST POP SWAP3 SWAP2 POP POP JUMP JUMPDEST PUSH1 0x20 DUP1 DUP3 MSTORE PUSH1 0xD SWAP1 DUP3 ADD MSTORE PUSH13 0x14DD58881B9BDD08199BDD5B99 PUSH1 0x9A SHL PUSH1 0x40 DUP3 ADD MSTORE PUSH1 0x60 ADD SWAP1 JUMP JUMPDEST PUSH4 0x4E487B71 PUSH1 0xE0 SHL PUSH1 0x0 MSTORE PUSH1 0x11 PUSH1 0x4 MSTORE PUSH1 0x24 PUSH1 0x0 REVERT JUMPDEST DUP1 DUP3 ADD DUP1 DUP3 GT ISZERO PUSH2 0xC37 JUMPI PUSH2 0xC37 PUSH2 0x17E6 JUMP JUMPDEST PUSH1 0x0 PUSH1 0x1 DUP3 ADD PUSH2 0x1821 JUMPI PUSH2 0x1821 PUSH2 0x17E6 JUMP JUMPDEST POP PUSH1 0x1 ADD SWAP1 JUMP JUMPDEST DUP2 DUP2 SUB DUP2 DUP2 GT ISZERO PUSH2 0xC37 JUMPI PUSH2 0xC37 PUSH2 0x17E6 JUMP INVALID SWAP12 PUSH24 0x9B17422D0DF92223018B32B4D1FA46E071723D6817E2486D STOP EXTCODESIZE 0xEC 0xC5 PUSH0 STOP LOG2 PUSH5 0x6970667358 0x22 SLT KECCAK256 BLOCKHASH SLT 0xB1 0xBA DUP1 DUP8 0xD SLT 0xC4 CHAINID 0xC0 MLOAD CALLVALUE BLOCKHASH 0x4F PUSH18 0xE08DB3770A97631CDFDB67ACF376040B6473 PUSH16 0x6C634300081A00330000000000000000 "},"methodIdentifiers":{"cancelSubscription(uint256)":"21235083","createSubscription(address,address,uint256,uint256,uint256,address)":"71de0459","cycleCount(uint256)":"fd373808","deductGas(address,uint256)":"783f223b","executePayment(uint256)":"162a0cf8","getPaymentRecord(uint256,uint256)":"2ed11be7","getSubscription(uint256)":"dc311dd3","isBundler(address)":"551530d6","isDue(uint256)":"5583a930","nextSubId()":"9c99f37a","owner()":"8da5cb5b","paymasterDeposit(address)":"b18e1d60","paymasterDeposit_(address)":"c4a3ea0f","paymentRecords(uint256,uint256)":"ec6b2fb9","refundPayment(uint256,uint256)":"95144dc4","setBundler(address,bool)":"0ecd471f","setSessionKey(uint256,address)":"0ff3d60c","subscriptions(uint256)":"2d5bbf60","withdrawPaymaster(uint256)":"449a7e7d"}}}}}