{
  "_format": "hh-sol-artifact-1",
  "contractName": "PlatformRegistry",
  "sourceName": "contracts/PlatformRegistry.sol",
  "abi": [
    {
      "inputs": [],
      "stateMutability": "nonpayable",
      "type": "constructor"
    },
    {
      "anonymous": false,
      "inputs": [
        {
          "indexed": true,
          "internalType": "address",
          "name": "newAdmin",
          "type": "address"
        }
      ],
      "name": "AdminTransferInitiated",
      "type": "event"
    },
    {
      "anonymous": false,
      "inputs": [
        {
          "indexed": true,
          "internalType": "address",
          "name": "oldAdmin",
          "type": "address"
        },
        {
          "indexed": true,
          "internalType": "address",
          "name": "newAdmin",
          "type": "address"
        }
      ],
      "name": "AdminTransferred",
      "type": "event"
    },
    {
      "anonymous": false,
      "inputs": [
        {
          "indexed": true,
          "internalType": "address",
          "name": "service",
          "type": "address"
        },
        {
          "indexed": true,
          "internalType": "address",
          "name": "operator",
          "type": "address"
        },
        {
          "indexed": false,
          "internalType": "string",
          "name": "name",
          "type": "string"
        }
      ],
      "name": "ServiceAdded",
      "type": "event"
    },
    {
      "anonymous": false,
      "inputs": [
        {
          "indexed": true,
          "internalType": "address",
          "name": "service",
          "type": "address"
        }
      ],
      "name": "ServiceRemoved",
      "type": "event"
    },
    {
      "anonymous": false,
      "inputs": [
        {
          "indexed": true,
          "internalType": "address",
          "name": "service",
          "type": "address"
        },
        {
          "indexed": false,
          "internalType": "string",
          "name": "name",
          "type": "string"
        }
      ],
      "name": "ServiceUpdated",
      "type": "event"
    },
    {
      "inputs": [],
      "name": "acceptAdminTransfer",
      "outputs": [],
      "stateMutability": "nonpayable",
      "type": "function"
    },
    {
      "inputs": [
        {
          "internalType": "address",
          "name": "service",
          "type": "address"
        },
        {
          "internalType": "address",
          "name": "operator",
          "type": "address"
        },
        {
          "internalType": "string",
          "name": "name",
          "type": "string"
        },
        {
          "internalType": "string",
          "name": "description",
          "type": "string"
        }
      ],
      "name": "addService",
      "outputs": [],
      "stateMutability": "nonpayable",
      "type": "function"
    },
    {
      "inputs": [],
      "name": "admin",
      "outputs": [
        {
          "internalType": "address",
          "name": "",
          "type": "address"
        }
      ],
      "stateMutability": "view",
      "type": "function"
    },
    {
      "inputs": [
        {
          "internalType": "uint256",
          "name": "offset",
          "type": "uint256"
        },
        {
          "internalType": "uint256",
          "name": "limit",
          "type": "uint256"
        }
      ],
      "name": "getActiveServices",
      "outputs": [
        {
          "internalType": "address[]",
          "name": "result",
          "type": "address[]"
        },
        {
          "internalType": "uint256",
          "name": "total",
          "type": "uint256"
        }
      ],
      "stateMutability": "view",
      "type": "function"
    },
    {
      "inputs": [
        {
          "internalType": "address",
          "name": "service",
          "type": "address"
        }
      ],
      "name": "getService",
      "outputs": [
        {
          "components": [
            {
              "internalType": "string",
              "name": "name",
              "type": "string"
            },
            {
              "internalType": "string",
              "name": "description",
              "type": "string"
            },
            {
              "internalType": "address",
              "name": "operator",
              "type": "address"
            },
            {
              "internalType": "uint256",
              "name": "addedAt",
              "type": "uint256"
            },
            {
              "internalType": "bool",
              "name": "active",
              "type": "bool"
            }
          ],
          "internalType": "struct PlatformRegistry.ServiceInfo",
          "name": "",
          "type": "tuple"
        }
      ],
      "stateMutability": "view",
      "type": "function"
    },
    {
      "inputs": [],
      "name": "getServiceCount",
      "outputs": [
        {
          "internalType": "uint256",
          "name": "",
          "type": "uint256"
        }
      ],
      "stateMutability": "view",
      "type": "function"
    },
    {
      "inputs": [
        {
          "internalType": "address",
          "name": "newAdmin",
          "type": "address"
        }
      ],
      "name": "initiateAdminTransfer",
      "outputs": [],
      "stateMutability": "nonpayable",
      "type": "function"
    },
    {
      "inputs": [
        {
          "internalType": "address",
          "name": "service",
          "type": "address"
        }
      ],
      "name": "isWhitelisted",
      "outputs": [
        {
          "internalType": "bool",
          "name": "",
          "type": "bool"
        }
      ],
      "stateMutability": "view",
      "type": "function"
    },
    {
      "inputs": [],
      "name": "pendingAdmin",
      "outputs": [
        {
          "internalType": "address",
          "name": "",
          "type": "address"
        }
      ],
      "stateMutability": "view",
      "type": "function"
    },
    {
      "inputs": [
        {
          "internalType": "address",
          "name": "service",
          "type": "address"
        }
      ],
      "name": "removeService",
      "outputs": [],
      "stateMutability": "nonpayable",
      "type": "function"
    },
    {
      "inputs": [
        {
          "internalType": "uint256",
          "name": "",
          "type": "uint256"
        }
      ],
      "name": "serviceList",
      "outputs": [
        {
          "internalType": "address",
          "name": "",
          "type": "address"
        }
      ],
      "stateMutability": "view",
      "type": "function"
    },
    {
      "inputs": [
        {
          "internalType": "address",
          "name": "service",
          "type": "address"
        },
        {
          "internalType": "string",
          "name": "name",
          "type": "string"
        },
        {
          "internalType": "string",
          "name": "description",
          "type": "string"
        }
      ],
      "name": "updateService",
      "outputs": [],
      "stateMutability": "nonpayable",
      "type": "function"
    }
  ],
  "bytecode": "0x608060405234801561000f575f80fd5b505f80546001600160a01b031916331790556111418061002e5f395ff3fe608060405234801561000f575f80fd5b50600436106100b1575f3560e01c80633af32abf1161006e5780633af32abf1461014a578063ab6c12df14610188578063b35b76491461019b578063bd293dca146101ae578063bf00fae3146101c1578063f851a440146101e2575f80fd5b806315a52302146100b557806317aee51f146100de5780631b305173146100e857806326782247146100fb5780632e674e89146101265780633672404e14610139575b5f80fd5b6100c86100c3366004610b81565b6101f4565b6040516100d59190610be4565b60405180910390f35b6100e66103a2565b005b6100e66100f6366004610b81565b610457565b60015461010e906001600160a01b031681565b6040516001600160a01b0390911681526020016100d5565b6100e6610134366004610c96565b610522565b6003546040519081526020016100d5565b610178610158366004610b81565b6001600160a01b03165f9081526002602052604090206004015460ff1690565b60405190151581526020016100d5565b6100e6610196366004610b81565b610826565b6100e66101a9366004610d21565b6108dd565b61010e6101bc366004610d9c565b6109f8565b6101d46101cf366004610db3565b610a20565b6040516100d5929190610dd3565b5f5461010e906001600160a01b031681565b61022e6040518060a0016040528060608152602001606081526020015f6001600160a01b031681526020015f81526020015f151581525090565b6001600160a01b0382165f9081526002602052604090819020815160a0810190925280548290829061025f90610e28565b80601f016020809104026020016040519081016040528092919081815260200182805461028b90610e28565b80156102d65780601f106102ad576101008083540402835291602001916102d6565b820191905f5260205f20905b8154815290600101906020018083116102b957829003601f168201915b505050505081526020016001820180546102ef90610e28565b80601f016020809104026020016040519081016040528092919081815260200182805461031b90610e28565b80156103665780601f1061033d57610100808354040283529160200191610366565b820191905f5260205f20905b81548152906001019060200180831161034957829003601f168201915b505050918352505060028201546001600160a01b031660208201526003820154604082015260049091015460ff16151560609091015292915050565b6001546001600160a01b031633146103f55760405162461bcd60e51b81526020600482015260116024820152702737ba103832b73234b7339030b236b4b760791b60448201526064015b60405180910390fd5b6001545f80546040516001600160a01b0393841693909116917ff8ccb027dfcd135e000e9d45e6cc2d662578a8825d4c45b5e32e0adf67e79ec691a3600180545f80546001600160a01b03199081166001600160a01b03841617909155169055565b5f546001600160a01b031633146104805760405162461bcd60e51b81526004016103ec90610e60565b6001600160a01b0381165f9081526002602052604090206004015460ff166104d75760405162461bcd60e51b815260206004820152600a6024820152694e6f742061637469766560b01b60448201526064016103ec565b6001600160a01b0381165f81815260026020526040808220600401805460ff19169055517f29d546abb6e94f4f04d5bdccb6682316f597d43776078f47e273f000e77b2a919190a250565b5f546001600160a01b0316331461054b5760405162461bcd60e51b81526004016103ec90610e60565b6001600160a01b0386166105985760405162461bcd60e51b81526020600482015260146024820152735a65726f2073657276696365206164647265737360601b60448201526064016103ec565b6001600160a01b0385166105e65760405162461bcd60e51b81526020600482015260156024820152745a65726f206f70657261746f72206164647265737360581b60448201526064016103ec565b826106205760405162461bcd60e51b815260206004820152600a602482015269456d707479206e616d6560b01b60448201526064016103ec565b6001600160a01b0386165f9081526002602052604090206004015460ff16156106815760405162461bcd60e51b8152602060048201526013602482015272105b1c9958591e481dda1a5d195b1a5cdd1959606a1b60448201526064016103ec565b6040518060a0016040528085858080601f0160208091040260200160405190810160405280939291908181526020018383808284375f92019190915250505090825250604080516020601f8601819004810282018101909252848152918101919085908590819084018382808284375f9201829052509385525050506001600160a01b03808916602080850191909152426040808601919091526001606090950194909452908a16825260029052208151819061073e9082610ef7565b50602082015160018201906107539082610ef7565b506040828101516002830180546001600160a01b039283166001600160a01b03199182161790915560608501516003808601919091556080909501516004909401805494151560ff199095169490941790935583546001810185555f949094527fc2575a0e9e593c00f959f8c92f12db2869c3395a3b0502d05e2516446f71f85b90930180548a851693168317905551918716917f1e4931c3b7f29bcba927c612362300943977993c3090998203a50bbede028446906108169088908890610fb7565b60405180910390a3505050505050565b5f546001600160a01b0316331461084f5760405162461bcd60e51b81526004016103ec90610e60565b6001600160a01b0381166108945760405162461bcd60e51b815260206004820152600c60248201526b5a65726f206164647265737360a01b60448201526064016103ec565b600180546001600160a01b0319166001600160a01b0383169081179091556040517f2fb5538521366928bc98c0de88c1ec7fdcaa2adbd79124c4f3cc109bf67e238b905f90a250565b5f546001600160a01b031633146109065760405162461bcd60e51b81526004016103ec90610e60565b6001600160a01b0385165f9081526002602052604090206004015460ff166109655760405162461bcd60e51b815260206004820152601260248201527153657276696365206e6f742061637469766560701b60448201526064016103ec565b6001600160a01b0385165f908152600260205260409020610987848683610fe5565b506001600160a01b0385165f9081526002602052604090206001016109ad828483610fe5565b50846001600160a01b03167f4753ea05804b68917fe65e38a8d48a1c098336025a4e9f9bb64e37afe726800885856040516109e9929190610fb7565b60405180910390a25050505050565b60038181548110610a07575f80fd5b5f918252602090912001546001600160a01b0316905081565b6003546060905f908181610a3486886110b3565b11610a4857610a4385876110b3565b610a4a565b815b9050610a5686826110cc565b67ffffffffffffffff811115610a6e57610a6e610e97565b604051908082528060200260200182016040528015610a97578160200160208202803683370190505b5093505f865b82811015610b575760025f60038381548110610abb57610abb6110df565b5f9182526020808320909101546001600160a01b0316835282019290925260400190206004015460ff1615610b4f5760038181548110610afd57610afd6110df565b5f918252602090912001546001600160a01b03168683610b1c816110f3565b945081518110610b2e57610b2e6110df565b60200260200101906001600160a01b031690816001600160a01b0316815250505b600101610a9d565b50845250919491935090915050565b80356001600160a01b0381168114610b7c575f80fd5b919050565b5f60208284031215610b91575f80fd5b610b9a82610b66565b9392505050565b5f81518084525f5b81811015610bc557602081850181015186830182015201610ba9565b505f602082860101526020601f19601f83011685010191505092915050565b602081525f825160a06020840152610bff60c0840182610ba1565b90506020840151601f19848303016040850152610c1c8282610ba1565b91505060018060a01b036040850151166060840152606084015160808401526080840151151560a08401528091505092915050565b5f8083601f840112610c61575f80fd5b50813567ffffffffffffffff811115610c78575f80fd5b602083019150836020828501011115610c8f575f80fd5b9250929050565b5f805f805f8060808789031215610cab575f80fd5b610cb487610b66565b9550610cc260208801610b66565b9450604087013567ffffffffffffffff80821115610cde575f80fd5b610cea8a838b01610c51565b90965094506060890135915080821115610d02575f80fd5b50610d0f89828a01610c51565b979a9699509497509295939492505050565b5f805f805f60608688031215610d35575f80fd5b610d3e86610b66565b9450602086013567ffffffffffffffff80821115610d5a575f80fd5b610d6689838a01610c51565b90965094506040880135915080821115610d7e575f80fd5b50610d8b88828901610c51565b969995985093965092949392505050565b5f60208284031215610dac575f80fd5b5035919050565b5f8060408385031215610dc4575f80fd5b50508035926020909101359150565b604080825283519082018190525f906020906060840190828701845b82811015610e145781516001600160a01b031684529284019290840190600101610def565b505050602093909301939093525092915050565b600181811c90821680610e3c57607f821691505b602082108103610e5a57634e487b7160e01b5f52602260045260245ffd5b50919050565b6020808252601b908201527f506c6174666f726d52656769737472793a206e6f742061646d696e0000000000604082015260600190565b634e487b7160e01b5f52604160045260245ffd5b601f821115610ef257805f5260205f20601f840160051c81016020851015610ed05750805b601f840160051c820191505b81811015610eef575f8155600101610edc565b50505b505050565b815167ffffffffffffffff811115610f1157610f11610e97565b610f2581610f1f8454610e28565b84610eab565b602080601f831160018114610f58575f8415610f415750858301515b5f19600386901b1c1916600185901b178555610faf565b5f85815260208120601f198616915b82811015610f8657888601518255948401946001909101908401610f67565b5085821015610fa357878501515f19600388901b60f8161c191681555b505060018460011b0185555b505050505050565b60208152816020820152818360408301375f818301604090810191909152601f909201601f19160101919050565b67ffffffffffffffff831115610ffd57610ffd610e97565b6110118361100b8354610e28565b83610eab565b5f601f841160018114611042575f851561102b5750838201355b5f19600387901b1c1916600186901b178355610eef565b5f83815260208120601f198716915b828110156110715786850135825560209485019460019092019101611051565b508682101561108d575f1960f88860031b161c19848701351681555b505060018560011b0183555050505050565b634e487b7160e01b5f52601160045260245ffd5b808201808211156110c6576110c661109f565b92915050565b818103818111156110c6576110c661109f565b634e487b7160e01b5f52603260045260245ffd5b5f600182016111045761110461109f565b506001019056fea2646970667358221220436fe560319cf98c09ec8113b2decf01365dbfe7d4860fa77f4814940280b47164736f6c63430008180033",
  "linkReferences": {},
  "deployedLinkReferences": {}
}