{
  "_format": "hh-sol-artifact-1",
  "contractName": "ClaimBundlerHelper",
  "sourceName": "contracts/ClaimBundlerHelper.sol",
  "abi": [
    {
      "inputs": [
        {
          "internalType": "address",
          "name": "_entryPoint",
          "type": "address"
        }
      ],
      "stateMutability": "nonpayable",
      "type": "constructor"
    },
    {
      "inputs": [],
      "name": "DEFAULT_CALL_GAS_LIMIT",
      "outputs": [
        {
          "internalType": "uint256",
          "name": "",
          "type": "uint256"
        }
      ],
      "stateMutability": "view",
      "type": "function"
    },
    {
      "inputs": [],
      "name": "DEFAULT_PRE_VERIFICATION_GAS",
      "outputs": [
        {
          "internalType": "uint256",
          "name": "",
          "type": "uint256"
        }
      ],
      "stateMutability": "view",
      "type": "function"
    },
    {
      "inputs": [],
      "name": "DEFAULT_VERIFICATION_GAS_LIMIT",
      "outputs": [
        {
          "internalType": "uint256",
          "name": "",
          "type": "uint256"
        }
      ],
      "stateMutability": "view",
      "type": "function"
    },
    {
      "inputs": [
        {
          "internalType": "address",
          "name": "wallet",
          "type": "address"
        },
        {
          "internalType": "address",
          "name": "service",
          "type": "address"
        },
        {
          "internalType": "uint256",
          "name": "maxFee",
          "type": "uint256"
        },
        {
          "internalType": "uint256",
          "name": "priorityFee",
          "type": "uint256"
        }
      ],
      "name": "buildClaimOp",
      "outputs": [
        {
          "components": [
            {
              "internalType": "address",
              "name": "sender",
              "type": "address"
            },
            {
              "internalType": "uint256",
              "name": "nonce",
              "type": "uint256"
            },
            {
              "internalType": "bytes",
              "name": "initCode",
              "type": "bytes"
            },
            {
              "internalType": "bytes",
              "name": "callData",
              "type": "bytes"
            },
            {
              "internalType": "uint256",
              "name": "callGasLimit",
              "type": "uint256"
            },
            {
              "internalType": "uint256",
              "name": "verificationGasLimit",
              "type": "uint256"
            },
            {
              "internalType": "uint256",
              "name": "preVerificationGas",
              "type": "uint256"
            },
            {
              "internalType": "uint256",
              "name": "maxFeePerGas",
              "type": "uint256"
            },
            {
              "internalType": "uint256",
              "name": "maxPriorityFeePerGas",
              "type": "uint256"
            },
            {
              "internalType": "bytes",
              "name": "paymasterAndData",
              "type": "bytes"
            },
            {
              "internalType": "bytes",
              "name": "signature",
              "type": "bytes"
            }
          ],
          "internalType": "struct UserOperation",
          "name": "op",
          "type": "tuple"
        }
      ],
      "stateMutability": "view",
      "type": "function"
    },
    {
      "inputs": [
        {
          "internalType": "address[]",
          "name": "wallets",
          "type": "address[]"
        },
        {
          "internalType": "address[]",
          "name": "services",
          "type": "address[]"
        }
      ],
      "name": "checkClaimable",
      "outputs": [
        {
          "components": [
            {
              "internalType": "address",
              "name": "wallet",
              "type": "address"
            },
            {
              "internalType": "address",
              "name": "service",
              "type": "address"
            },
            {
              "internalType": "bool",
              "name": "isDue",
              "type": "bool"
            },
            {
              "internalType": "bool",
              "name": "hasBalance",
              "type": "bool"
            },
            {
              "internalType": "bool",
              "name": "isWhitelisted",
              "type": "bool"
            },
            {
              "internalType": "uint256",
              "name": "nextClaimAt",
              "type": "uint256"
            },
            {
              "internalType": "uint256",
              "name": "amountPerCycle",
              "type": "uint256"
            },
            {
              "internalType": "uint256",
              "name": "walletBalance",
              "type": "uint256"
            }
          ],
          "internalType": "struct ClaimBundlerHelper.ClaimStatus[]",
          "name": "statuses",
          "type": "tuple[]"
        }
      ],
      "stateMutability": "view",
      "type": "function"
    },
    {
      "inputs": [],
      "name": "entryPoint",
      "outputs": [
        {
          "internalType": "contract IEntryPoint",
          "name": "",
          "type": "address"
        }
      ],
      "stateMutability": "view",
      "type": "function"
    }
  ],
  "bytecode": "0x60a060405234801561000f575f80fd5b50604051610bfc380380610bfc83398101604081905261002e9161003f565b6001600160a01b031660805261006c565b5f6020828403121561004f575f80fd5b81516001600160a01b0381168114610065575f80fd5b9392505050565b608051610b7261008a5f395f818160d901526101f50152610b725ff3fe608060405234801561000f575f80fd5b5060043610610060575f3560e01c80630716cfde146100645780633650fdbf1461008157806379e025781461008b57806380d281c6146100ab578063a230fe61146100cb578063b0d691fe146100d4575b5f80fd5b61006e620186a081565b6040519081526020015b60405180910390f35b61006e620249f081565b61009e610099366004610704565b610113565b6040516100789190610794565b6100be6100b93660046108bc565b610304565b6040516100789190610923565b61006e61c35081565b6100fb7f000000000000000000000000000000000000000000000000000000000000000081565b6040516001600160a01b039091168152602001610078565b6101726040518061016001604052805f6001600160a01b031681526020015f815260200160608152602001606081526020015f81526020015f81526020015f81526020015f81526020015f815260200160608152602001606081525090565b604080516001600160a01b03861660208201525f91633e0f173b60e11b910160408051601f19818403018152908290526101af92916020016109c1565b60408051808303601f19018152610160830182526001600160a01b038981168085529251631aab3f0d60e11b815260048101939093525f602484015290935060208301917f0000000000000000000000000000000000000000000000000000000000000000909116906335567e1a90604401602060405180830381865afa15801561023c573d5f803e3d5ffd5b505050506040513d601f19601f8201168201806040525081019061026091906109f1565b815260408051602081810183525f825283015280516001600160a01b038916602482015291019060440160408051601f19818403018152918152602080830180516001600160e01b031663055f91ed60e11b179052918352620186a083830152620249f08382015261c3506060840152608083019790975260a082019590955285519485019095525f845260c085019390935260e093909301929092529392505050565b606083821461034b5760405162461bcd60e51b815260206004820152600f60248201526e098cadccee8d040dad2e6dac2e8c6d608b1b604482015260640160405180910390fd5b8367ffffffffffffffff81111561036457610364610a08565b6040519080825280602002602001820160405280156103d157816020015b60408051610100810182525f8082526020808301829052928201819052606082018190526080820181905260a0820181905260c0820181905260e082015282525f199092019101816103825790505b5090505f5b848110156106e4575f8686838181106103f1576103f1610a1c565b90506020020160208101906104069190610a30565b90505f85858481811061041b5761041b610a1c565b90506020020160208101906104309190610a30565b60405163032faf0960e21b81526001600160a01b0380831660048301529192505f91841690630cbebc249060240160e060405180830381865afa158015610479573d5f803e3d5ffd5b505050506040513d601f19601f8201168201806040525081019061049d9190610a71565b80519091505f906001600160a01b0316156105525781516001600160a01b03166370a082318b8b888181106104d4576104d4610a1c565b90506020020160208101906104e99190610a30565b6040516001600160e01b031960e084901b1681526001600160a01b039091166004820152602401602060405180830381865afa15801561052b573d5f803e3d5ffd5b505050506040513d601f19601f8201168201806040525081019061054f91906109f1565b90505b6040518061010001604052808b8b8881811061057057610570610a1c565b90506020020160208101906105859190610a30565b6001600160a01b03168152602001846001600160a01b031681526020018360c0015180156105b757508360a001514210155b15158152602001836020015183101515158152602001856001600160a01b0316637b1039996040518163ffffffff1660e01b8152600401602060405180830381865afa158015610609573d5f803e3d5ffd5b505050506040513d601f19601f8201168201806040525081019061062d9190610b08565b604051633af32abf60e01b81526001600160a01b0387811660048301529190911690633af32abf90602401602060405180830381865afa158015610673573d5f803e3d5ffd5b505050506040513d601f19601f820116820180604052508101906106979190610b23565b151581526020018360a00151815260200183602001518152602001828152508686815181106106c8576106c8610a1c565b60200260200101819052505050505080806001019150506103d6565b50949350505050565b6001600160a01b0381168114610701575f80fd5b50565b5f805f8060808587031215610717575f80fd5b8435610722816106ed565b93506020850135610732816106ed565b93969395505050506040820135916060013590565b5f5b83811015610761578181015183820152602001610749565b50505f910152565b5f8151808452610780816020860160208601610747565b601f01601f19169290920160200192915050565b602081526107ae6020820183516001600160a01b03169052565b602082015160408201525f60408301516101608060608501526107d5610180850183610769565b91506060850151601f19808685030160808701526107f38483610769565b9350608087015160a087015260a087015160c087015260c087015160e087015260e0870151915061010082818801528088015192505061012082818801528088015192505061014081878603018188015261084e8584610769565b90880151878203909201848801529350905061086a8382610769565b9695505050505050565b5f8083601f840112610884575f80fd5b50813567ffffffffffffffff81111561089b575f80fd5b6020830191508360208260051b85010111156108b5575f80fd5b9250929050565b5f805f80604085870312156108cf575f80fd5b843567ffffffffffffffff808211156108e6575f80fd5b6108f288838901610874565b9096509450602087013591508082111561090a575f80fd5b5061091787828801610874565b95989497509550505050565b602080825282518282018190525f919060409081850190868401855b828110156109b457815180516001600160a01b0390811686528782015116878601528581015115158686015260608082015115159086015260808082015115159086015260a0808201519086015260c0808201519086015260e09081015190850152610100909301929085019060010161093f565b5091979650505050505050565b6001600160e01b03198316815281515f906109e3816004850160208701610747565b919091016004019392505050565b5f60208284031215610a01575f80fd5b5051919050565b634e487b7160e01b5f52604160045260245ffd5b634e487b7160e01b5f52603260045260245ffd5b5f60208284031215610a40575f80fd5b8135610a4b816106ed565b9392505050565b8051610a5d816106ed565b919050565b80518015158114610a5d575f80fd5b5f60e08284031215610a81575f80fd5b60405160e0810181811067ffffffffffffffff82111715610ab057634e487b7160e01b5f52604160045260245ffd5b604052610abc83610a52565b81526020830151602082015260408301516040820152606083015160608201526080830151608082015260a083015160a0820152610afc60c08401610a62565b60c08201529392505050565b5f60208284031215610b18575f80fd5b8151610a4b816106ed565b5f60208284031215610b33575f80fd5b610a4b82610a6256fea2646970667358221220fee9237184c7798f38bb1765047492cc29075a004fd83f6a3c82d8ab623ec12b64736f6c63430008180033",
  "linkReferences": {},
  "deployedLinkReferences": {}
}