{
  "_format": "hh-sol-artifact-1",
  "contractName": "MockEntryPoint",
  "sourceName": "contracts/Mocks.sol",
  "abi": [
    {
      "inputs": [
        {
          "internalType": "address",
          "name": "account",
          "type": "address"
        }
      ],
      "name": "balanceOf",
      "outputs": [
        {
          "internalType": "uint256",
          "name": "",
          "type": "uint256"
        }
      ],
      "stateMutability": "view",
      "type": "function"
    },
    {
      "inputs": [
        {
          "internalType": "address",
          "name": "account",
          "type": "address"
        }
      ],
      "name": "depositTo",
      "outputs": [],
      "stateMutability": "payable",
      "type": "function"
    },
    {
      "inputs": [
        {
          "internalType": "address",
          "name": "sender",
          "type": "address"
        },
        {
          "internalType": "uint192",
          "name": "",
          "type": "uint192"
        }
      ],
      "name": "getNonce",
      "outputs": [
        {
          "internalType": "uint256",
          "name": "",
          "type": "uint256"
        }
      ],
      "stateMutability": "view",
      "type": "function"
    },
    {
      "inputs": [
        {
          "components": [
            {
              "internalType": "address",
              "name": "sender",
              "type": "address"
            },
            {
              "internalType": "uint256",
              "name": "nonce",
              "type": "uint256"
            },
            {
              "internalType": "bytes",
              "name": "initCode",
              "type": "bytes"
            },
            {
              "internalType": "bytes",
              "name": "callData",
              "type": "bytes"
            },
            {
              "internalType": "uint256",
              "name": "callGasLimit",
              "type": "uint256"
            },
            {
              "internalType": "uint256",
              "name": "verificationGasLimit",
              "type": "uint256"
            },
            {
              "internalType": "uint256",
              "name": "preVerificationGas",
              "type": "uint256"
            },
            {
              "internalType": "uint256",
              "name": "maxFeePerGas",
              "type": "uint256"
            },
            {
              "internalType": "uint256",
              "name": "maxPriorityFeePerGas",
              "type": "uint256"
            },
            {
              "internalType": "bytes",
              "name": "paymasterAndData",
              "type": "bytes"
            },
            {
              "internalType": "bytes",
              "name": "signature",
              "type": "bytes"
            }
          ],
          "internalType": "struct UserOperation[]",
          "name": "ops",
          "type": "tuple[]"
        },
        {
          "internalType": "address payable",
          "name": "beneficiary",
          "type": "address"
        }
      ],
      "name": "handleOps",
      "outputs": [],
      "stateMutability": "nonpayable",
      "type": "function"
    },
    {
      "inputs": [
        {
          "components": [
            {
              "internalType": "address",
              "name": "sender",
              "type": "address"
            },
            {
              "internalType": "uint256",
              "name": "nonce",
              "type": "uint256"
            },
            {
              "internalType": "bytes",
              "name": "initCode",
              "type": "bytes"
            },
            {
              "internalType": "bytes",
              "name": "callData",
              "type": "bytes"
            },
            {
              "internalType": "uint256",
              "name": "callGasLimit",
              "type": "uint256"
            },
            {
              "internalType": "uint256",
              "name": "verificationGasLimit",
              "type": "uint256"
            },
            {
              "internalType": "uint256",
              "name": "preVerificationGas",
              "type": "uint256"
            },
            {
              "internalType": "uint256",
              "name": "maxFeePerGas",
              "type": "uint256"
            },
            {
              "internalType": "uint256",
              "name": "maxPriorityFeePerGas",
              "type": "uint256"
            },
            {
              "internalType": "bytes",
              "name": "paymasterAndData",
              "type": "bytes"
            },
            {
              "internalType": "bytes",
              "name": "signature",
              "type": "bytes"
            }
          ],
          "internalType": "struct UserOperation",
          "name": "userOp",
          "type": "tuple"
        }
      ],
      "name": "simulateOp",
      "outputs": [
        {
          "internalType": "uint256",
          "name": "validationData",
          "type": "uint256"
        }
      ],
      "stateMutability": "nonpayable",
      "type": "function"
    },
    {
      "inputs": [
        {
          "components": [
            {
              "internalType": "address",
              "name": "sender",
              "type": "address"
            },
            {
              "internalType": "uint256",
              "name": "nonce",
              "type": "uint256"
            },
            {
              "internalType": "bytes",
              "name": "initCode",
              "type": "bytes"
            },
            {
              "internalType": "bytes",
              "name": "callData",
              "type": "bytes"
            },
            {
              "internalType": "uint256",
              "name": "callGasLimit",
              "type": "uint256"
            },
            {
              "internalType": "uint256",
              "name": "verificationGasLimit",
              "type": "uint256"
            },
            {
              "internalType": "uint256",
              "name": "preVerificationGas",
              "type": "uint256"
            },
            {
              "internalType": "uint256",
              "name": "maxFeePerGas",
              "type": "uint256"
            },
            {
              "internalType": "uint256",
              "name": "maxPriorityFeePerGas",
              "type": "uint256"
            },
            {
              "internalType": "bytes",
              "name": "paymasterAndData",
              "type": "bytes"
            },
            {
              "internalType": "bytes",
              "name": "signature",
              "type": "bytes"
            }
          ],
          "internalType": "struct UserOperation",
          "name": "userOp",
          "type": "tuple"
        }
      ],
      "name": "validateOnly",
      "outputs": [
        {
          "internalType": "uint256",
          "name": "validationData",
          "type": "uint256"
        }
      ],
      "stateMutability": "nonpayable",
      "type": "function"
    },
    {
      "inputs": [
        {
          "internalType": "address payable",
          "name": "withdrawAddress",
          "type": "address"
        },
        {
          "internalType": "uint256",
          "name": "amount",
          "type": "uint256"
        }
      ],
      "name": "withdrawTo",
      "outputs": [],
      "stateMutability": "nonpayable",
      "type": "function"
    },
    {
      "stateMutability": "payable",
      "type": "receive"
    }
  ],
  "bytecode": "0x608060405234801561000f575f80fd5b50610abd8061001d5f395ff3fe608060405260043610610071575f3560e01c806370a082311161004c57806370a08231146100ed5780638f76795814610121578063b760faf914610140578063e8bd3b2514610153575f80fd5b80631fad948c1461007c578063205c28781461009d57806335567e1a146100bc575f80fd5b3661007857005b5f80fd5b348015610087575f80fd5b5061009b6100963660046106ae565b610172565b005b3480156100a8575f80fd5b5061009b6100b736600461072d565b6101b6565b3480156100c7575f80fd5b506100db6100d6366004610767565b6102d5565b60405190815260200160405180910390f35b3480156100f8575f80fd5b506100db6101073660046107a9565b6001600160a01b03165f9081526020819052604090205490565b34801561012c575f80fd5b506100db61013b3660046107c4565b6102f4565b61009b61014e3660046107a9565b6103a2565b34801561015e575f80fd5b506100db61016d3660046107c4565b6103d1565b5f5b828110156101b0576101a8848483818110610191576101916107fc565b90506020028101906101a39190610810565b6104e5565b600101610174565b50505050565b335f908152602081905260409020548111156102195760405162461bcd60e51b815260206004820152601860248201527f45503a20696e73756666696369656e74206465706f736974000000000000000060448201526064015b60405180910390fd5b335f9081526020819052604081208054839290610237908490610843565b90915550506040515f906001600160a01b0384169083908381818185875af1925050503d805f8114610284576040519150601f19603f3d011682016040523d82523d5f602084013e610289565b606091505b50509050806102d05760405162461bcd60e51b815260206004820152601360248201527211540e881dda5d1a191c985dc819985a5b1959606a1b6044820152606401610210565b505050565b6001600160a01b0382165f908152600160205260409020545b92915050565b5f8061030360208401846107a9565b9050806001600160a01b0316633a871cdd848560405160200161032691906109bd565b604051602081830303815290604052805190602001205f6040518463ffffffff1660e01b815260040161035b939291906109cf565b6020604051808303815f875af1158015610377573d5f803e3d5ffd5b505050506040513d601f19601f8201168201806040525081019061039b91906109f3565b9392505050565b6001600160a01b0381165f90815260208190526040812080543492906103c9908490610a0a565b909155505050565b5f806103e060208401846107a9565b9050806001600160a01b0316633a871cdd848560405160200161040391906109bd565b604051602081830303815290604052805190602001205f6040518463ffffffff1660e01b8152600401610438939291906109cf565b6020604051808303815f875af1158015610454573d5f803e3d5ffd5b505050506040513d601f19601f8201168201806040525081019061047891906109f3565b9150815f036104df576104a361049160208501856107a9565b61049e6060860186610a1d565b610624565b60015f6104b360208601866107a9565b6001600160a01b0316815260208101919091526040015f9081208054916104d983610a60565b91905055505b50919050565b5f6104f360208301836107a9565b90505f816001600160a01b0316633a871cdd848560405160200161051791906109bd565b604051602081830303815290604052805190602001205f6040518463ffffffff1660e01b815260040161054c939291906109cf565b6020604051808303815f875af1158015610568573d5f803e3d5ffd5b505050506040513d601f19601f8201168201806040525081019061058c91906109f3565b905080156105d45760405162461bcd60e51b815260206004820152601560248201527411540e881d985b1a59185d1a5bdb8819985a5b1959605a1b6044820152606401610210565b6105e461049160208501856107a9565b60015f6105f460208601866107a9565b6001600160a01b0316815260208101919091526040015f90812080549161061a83610a60565b9190505550505050565b5f80846001600160a01b03168484604051610640929190610a78565b5f604051808303815f865af19150503d805f8114610679576040519150601f19603f3d011682016040523d82523d5f602084013e61067e565b606091505b50915091508161069057805160208201fd5b5050505050565b6001600160a01b03811681146106ab575f80fd5b50565b5f805f604084860312156106c0575f80fd5b833567ffffffffffffffff808211156106d7575f80fd5b818601915086601f8301126106ea575f80fd5b8135818111156106f8575f80fd5b8760208260051b850101111561070c575f80fd5b6020928301955093505084013561072281610697565b809150509250925092565b5f806040838503121561073e575f80fd5b823561074981610697565b946020939093013593505050565b803561076281610697565b919050565b5f8060408385031215610778575f80fd5b823561078381610697565b915060208301356001600160c01b038116811461079e575f80fd5b809150509250929050565b5f602082840312156107b9575f80fd5b813561039b81610697565b5f602082840312156107d4575f80fd5b813567ffffffffffffffff8111156107ea575f80fd5b8201610160818503121561039b575f80fd5b634e487b7160e01b5f52603260045260245ffd5b5f823561015e19833603018112610825575f80fd5b9190910192915050565b634e487b7160e01b5f52601160045260245ffd5b818103818111156102ee576102ee61082f565b5f808335601e1984360301811261086b575f80fd5b830160208101925035905067ffffffffffffffff81111561088a575f80fd5b803603821315610898575f80fd5b9250929050565b81835281816020850137505f828201602090810191909152601f909101601f19169091010190565b5f6101606108e5846108d885610757565b6001600160a01b03169052565b602083013560208501526108fc6040840184610856565b82604087015261090f838701828461089f565b925050506109206060840184610856565b858303606087015261093383828461089f565b925050506080830135608085015260a083013560a085015260c083013560c085015260e083013560e085015261010080840135818601525061012061097a81850185610856565b8684038388015261098c84828461089f565b93505050506101406109a081850185610856565b868403838801526109b284828461089f565b979650505050505050565b602081525f61039b60208301846108c7565b606081525f6109e160608301866108c7565b60208301949094525060400152919050565b5f60208284031215610a03575f80fd5b5051919050565b808201808211156102ee576102ee61082f565b5f808335601e19843603018112610a32575f80fd5b83018035915067ffffffffffffffff821115610a4c575f80fd5b602001915036819003821315610898575f80fd5b5f60018201610a7157610a7161082f565b5060010190565b818382375f910190815291905056fea2646970667358221220fb7c9edec25df94eeebe4d1fb7b898bd6305201999fcf9bfb554a48f213c089164736f6c63430008180033",
  "linkReferences": {},
  "deployedLinkReferences": {}
}