{
  "_format": "hh-sol-artifact-1",
  "contractName": "MockService",
  "sourceName": "contracts/Mocks.sol",
  "abi": [
    {
      "inputs": [
        {
          "internalType": "address",
          "name": "_token",
          "type": "address"
        }
      ],
      "stateMutability": "nonpayable",
      "type": "constructor"
    },
    {
      "anonymous": false,
      "inputs": [
        {
          "indexed": true,
          "internalType": "address",
          "name": "wallet",
          "type": "address"
        },
        {
          "indexed": false,
          "internalType": "uint256",
          "name": "amount",
          "type": "uint256"
        }
      ],
      "name": "PaymentReceived",
      "type": "event"
    },
    {
      "inputs": [],
      "name": "getBalance",
      "outputs": [
        {
          "internalType": "uint256",
          "name": "",
          "type": "uint256"
        }
      ],
      "stateMutability": "view",
      "type": "function"
    },
    {
      "inputs": [],
      "name": "token",
      "outputs": [
        {
          "internalType": "address",
          "name": "",
          "type": "address"
        }
      ],
      "stateMutability": "view",
      "type": "function"
    },
    {
      "inputs": [],
      "name": "totalReceived",
      "outputs": [
        {
          "internalType": "uint256",
          "name": "",
          "type": "uint256"
        }
      ],
      "stateMutability": "view",
      "type": "function"
    },
    {
      "stateMutability": "payable",
      "type": "receive"
    }
  ],
  "bytecode": "0x60a060405234801561000f575f80fd5b5060405161022a38038061022a83398101604081905261002e9161003f565b6001600160a01b031660805261006c565b5f6020828403121561004f575f80fd5b81516001600160a01b0381168114610065575f80fd5b9392505050565b6080516101a16100895f395f8181608d015260de01526101a15ff3fe608060405260043610610036575f3560e01c806312065fe014610041578063a3c2c46214610068578063fc0c546a1461007c575f80fd5b3661003d57005b5f80fd5b34801561004c575f80fd5b506100556100c7565b6040519081526020015b60405180910390f35b348015610073575f80fd5b506100555f5481565b348015610087575f80fd5b506100af7f000000000000000000000000000000000000000000000000000000000000000081565b6040516001600160a01b03909116815260200161005f565b6040516370a0823160e01b81523060048201525f907f00000000000000000000000000000000000000000000000000000000000000006001600160a01b0316906370a0823190602401602060405180830381865afa15801561012b573d5f803e3d5ffd5b505050506040513d601f19601f8201168201806040525081019061014f9190610154565b905090565b5f60208284031215610164575f80fd5b505191905056fea2646970667358221220db0c4d45da6acd01e2a9b9d43ebe6bb36ebcd2403163655b632aef8d6a523c8264736f6c63430008180033",
  "linkReferences": {},
  "deployedLinkReferences": {}
}