{
  "_format": "hh-sol-artifact-1",
  "contractName": "SubscriptionManager",
  "sourceName": "contracts/SubscriptionManager.sol",
  "abi": [
    {
      "inputs": [],
      "stateMutability": "nonpayable",
      "type": "constructor"
    },
    {
      "inputs": [],
      "name": "ReentrancyGuardReentrantCall",
      "type": "error"
    },
    {
      "inputs": [
        {
          "internalType": "address",
          "name": "token",
          "type": "address"
        }
      ],
      "name": "SafeERC20FailedOperation",
      "type": "error"
    },
    {
      "anonymous": false,
      "inputs": [
        {
          "indexed": false,
          "internalType": "address",
          "name": "bundler",
          "type": "address"
        },
        {
          "indexed": false,
          "internalType": "bool",
          "name": "status",
          "type": "bool"
        }
      ],
      "name": "BundlerSet",
      "type": "event"
    },
    {
      "anonymous": false,
      "inputs": [
        {
          "indexed": true,
          "internalType": "address",
          "name": "payer",
          "type": "address"
        },
        {
          "indexed": false,
          "internalType": "uint256",
          "name": "amount",
          "type": "uint256"
        }
      ],
      "name": "PaymasterDeposited",
      "type": "event"
    },
    {
      "anonymous": false,
      "inputs": [
        {
          "indexed": true,
          "internalType": "address",
          "name": "payer",
          "type": "address"
        },
        {
          "indexed": false,
          "internalType": "uint256",
          "name": "amount",
          "type": "uint256"
        }
      ],
      "name": "PaymasterWithdrawn",
      "type": "event"
    },
    {
      "anonymous": false,
      "inputs": [
        {
          "indexed": true,
          "internalType": "uint256",
          "name": "subId",
          "type": "uint256"
        },
        {
          "indexed": true,
          "internalType": "uint256",
          "name": "cycle",
          "type": "uint256"
        },
        {
          "indexed": true,
          "internalType": "address",
          "name": "executor",
          "type": "address"
        },
        {
          "indexed": false,
          "internalType": "uint256",
          "name": "amount",
          "type": "uint256"
        },
        {
          "indexed": false,
          "internalType": "uint256",
          "name": "timestamp",
          "type": "uint256"
        }
      ],
      "name": "PaymentExecuted",
      "type": "event"
    },
    {
      "anonymous": false,
      "inputs": [
        {
          "indexed": true,
          "internalType": "uint256",
          "name": "subId",
          "type": "uint256"
        },
        {
          "indexed": true,
          "internalType": "uint256",
          "name": "cycle",
          "type": "uint256"
        },
        {
          "indexed": false,
          "internalType": "uint256",
          "name": "amount",
          "type": "uint256"
        }
      ],
      "name": "PaymentRefunded",
      "type": "event"
    },
    {
      "anonymous": false,
      "inputs": [
        {
          "indexed": true,
          "internalType": "uint256",
          "name": "subId",
          "type": "uint256"
        },
        {
          "indexed": false,
          "internalType": "address",
          "name": "sessionKey",
          "type": "address"
        }
      ],
      "name": "SessionKeyUpdated",
      "type": "event"
    },
    {
      "anonymous": false,
      "inputs": [
        {
          "indexed": true,
          "internalType": "uint256",
          "name": "subId",
          "type": "uint256"
        },
        {
          "indexed": false,
          "internalType": "address",
          "name": "cancelledBy",
          "type": "address"
        }
      ],
      "name": "SubscriptionCancelled",
      "type": "event"
    },
    {
      "anonymous": false,
      "inputs": [
        {
          "indexed": true,
          "internalType": "uint256",
          "name": "subId",
          "type": "uint256"
        },
        {
          "indexed": true,
          "internalType": "address",
          "name": "payer",
          "type": "address"
        },
        {
          "indexed": true,
          "internalType": "address",
          "name": "recipient",
          "type": "address"
        },
        {
          "indexed": false,
          "internalType": "address",
          "name": "token",
          "type": "address"
        },
        {
          "indexed": false,
          "internalType": "uint256",
          "name": "amount",
          "type": "uint256"
        },
        {
          "indexed": false,
          "internalType": "uint256",
          "name": "interval",
          "type": "uint256"
        },
        {
          "indexed": false,
          "internalType": "uint256",
          "name": "totalCap",
          "type": "uint256"
        }
      ],
      "name": "SubscriptionCreated",
      "type": "event"
    },
    {
      "inputs": [
        {
          "internalType": "uint256",
          "name": "subId",
          "type": "uint256"
        }
      ],
      "name": "cancelSubscription",
      "outputs": [],
      "stateMutability": "nonpayable",
      "type": "function"
    },
    {
      "inputs": [
        {
          "internalType": "address",
          "name": "recipient",
          "type": "address"
        },
        {
          "internalType": "address",
          "name": "token",
          "type": "address"
        },
        {
          "internalType": "uint256",
          "name": "amount",
          "type": "uint256"
        },
        {
          "internalType": "uint256",
          "name": "interval",
          "type": "uint256"
        },
        {
          "internalType": "uint256",
          "name": "totalCap",
          "type": "uint256"
        },
        {
          "internalType": "address",
          "name": "sessionKey",
          "type": "address"
        }
      ],
      "name": "createSubscription",
      "outputs": [
        {
          "internalType": "uint256",
          "name": "subId",
          "type": "uint256"
        }
      ],
      "stateMutability": "nonpayable",
      "type": "function"
    },
    {
      "inputs": [
        {
          "internalType": "uint256",
          "name": "",
          "type": "uint256"
        }
      ],
      "name": "cycleCount",
      "outputs": [
        {
          "internalType": "uint256",
          "name": "",
          "type": "uint256"
        }
      ],
      "stateMutability": "view",
      "type": "function"
    },
    {
      "inputs": [
        {
          "internalType": "address",
          "name": "payer",
          "type": "address"
        },
        {
          "internalType": "uint256",
          "name": "gasCost",
          "type": "uint256"
        }
      ],
      "name": "deductGas",
      "outputs": [],
      "stateMutability": "nonpayable",
      "type": "function"
    },
    {
      "inputs": [
        {
          "internalType": "uint256",
          "name": "subId",
          "type": "uint256"
        }
      ],
      "name": "executePayment",
      "outputs": [],
      "stateMutability": "nonpayable",
      "type": "function"
    },
    {
      "inputs": [
        {
          "internalType": "uint256",
          "name": "subId",
          "type": "uint256"
        },
        {
          "internalType": "uint256",
          "name": "cycle",
          "type": "uint256"
        }
      ],
      "name": "getPaymentRecord",
      "outputs": [
        {
          "components": [
            {
              "internalType": "uint256",
              "name": "subscriptionId",
              "type": "uint256"
            },
            {
              "internalType": "uint256",
              "name": "cycle",
              "type": "uint256"
            },
            {
              "internalType": "uint256",
              "name": "amount",
              "type": "uint256"
            },
            {
              "internalType": "uint256",
              "name": "timestamp",
              "type": "uint256"
            },
            {
              "internalType": "bool",
              "name": "refunded",
              "type": "bool"
            }
          ],
          "internalType": "struct SubscriptionManager.PaymentRecord",
          "name": "",
          "type": "tuple"
        }
      ],
      "stateMutability": "view",
      "type": "function"
    },
    {
      "inputs": [
        {
          "internalType": "uint256",
          "name": "subId",
          "type": "uint256"
        }
      ],
      "name": "getSubscription",
      "outputs": [
        {
          "components": [
            {
              "internalType": "address",
              "name": "payer",
              "type": "address"
            },
            {
              "internalType": "address",
              "name": "recipient",
              "type": "address"
            },
            {
              "internalType": "address",
              "name": "token",
              "type": "address"
            },
            {
              "internalType": "uint256",
              "name": "amount",
              "type": "uint256"
            },
            {
              "internalType": "uint256",
              "name": "interval",
              "type": "uint256"
            },
            {
              "internalType": "uint256",
              "name": "nextPayment",
              "type": "uint256"
            },
            {
              "internalType": "uint256",
              "name": "totalCap",
              "type": "uint256"
            },
            {
              "internalType": "uint256",
              "name": "totalSpent",
              "type": "uint256"
            },
            {
              "internalType": "address",
              "name": "sessionKey",
              "type": "address"
            },
            {
              "internalType": "bool",
              "name": "active",
              "type": "bool"
            }
          ],
          "internalType": "struct SubscriptionManager.Subscription",
          "name": "",
          "type": "tuple"
        }
      ],
      "stateMutability": "view",
      "type": "function"
    },
    {
      "inputs": [
        {
          "internalType": "address",
          "name": "",
          "type": "address"
        }
      ],
      "name": "isBundler",
      "outputs": [
        {
          "internalType": "bool",
          "name": "",
          "type": "bool"
        }
      ],
      "stateMutability": "view",
      "type": "function"
    },
    {
      "inputs": [
        {
          "internalType": "uint256",
          "name": "subId",
          "type": "uint256"
        }
      ],
      "name": "isDue",
      "outputs": [
        {
          "internalType": "bool",
          "name": "",
          "type": "bool"
        }
      ],
      "stateMutability": "view",
      "type": "function"
    },
    {
      "inputs": [],
      "name": "nextSubId",
      "outputs": [
        {
          "internalType": "uint256",
          "name": "",
          "type": "uint256"
        }
      ],
      "stateMutability": "view",
      "type": "function"
    },
    {
      "inputs": [],
      "name": "owner",
      "outputs": [
        {
          "internalType": "address",
          "name": "",
          "type": "address"
        }
      ],
      "stateMutability": "view",
      "type": "function"
    },
    {
      "inputs": [
        {
          "internalType": "address",
          "name": "",
          "type": "address"
        }
      ],
      "name": "paymasterDeposit",
      "outputs": [
        {
          "internalType": "uint256",
          "name": "",
          "type": "uint256"
        }
      ],
      "stateMutability": "view",
      "type": "function"
    },
    {
      "inputs": [
        {
          "internalType": "address",
          "name": "payer",
          "type": "address"
        }
      ],
      "name": "paymasterDeposit_",
      "outputs": [],
      "stateMutability": "payable",
      "type": "function"
    },
    {
      "inputs": [
        {
          "internalType": "uint256",
          "name": "",
          "type": "uint256"
        },
        {
          "internalType": "uint256",
          "name": "",
          "type": "uint256"
        }
      ],
      "name": "paymentRecords",
      "outputs": [
        {
          "internalType": "uint256",
          "name": "subscriptionId",
          "type": "uint256"
        },
        {
          "internalType": "uint256",
          "name": "cycle",
          "type": "uint256"
        },
        {
          "internalType": "uint256",
          "name": "amount",
          "type": "uint256"
        },
        {
          "internalType": "uint256",
          "name": "timestamp",
          "type": "uint256"
        },
        {
          "internalType": "bool",
          "name": "refunded",
          "type": "bool"
        }
      ],
      "stateMutability": "view",
      "type": "function"
    },
    {
      "inputs": [
        {
          "internalType": "uint256",
          "name": "subId",
          "type": "uint256"
        },
        {
          "internalType": "uint256",
          "name": "cycle",
          "type": "uint256"
        }
      ],
      "name": "refundPayment",
      "outputs": [],
      "stateMutability": "nonpayable",
      "type": "function"
    },
    {
      "inputs": [
        {
          "internalType": "address",
          "name": "bundler",
          "type": "address"
        },
        {
          "internalType": "bool",
          "name": "status",
          "type": "bool"
        }
      ],
      "name": "setBundler",
      "outputs": [],
      "stateMutability": "nonpayable",
      "type": "function"
    },
    {
      "inputs": [
        {
          "internalType": "uint256",
          "name": "subId",
          "type": "uint256"
        },
        {
          "internalType": "address",
          "name": "key",
          "type": "address"
        }
      ],
      "name": "setSessionKey",
      "outputs": [],
      "stateMutability": "nonpayable",
      "type": "function"
    },
    {
      "inputs": [
        {
          "internalType": "uint256",
          "name": "",
          "type": "uint256"
        }
      ],
      "name": "subscriptions",
      "outputs": [
        {
          "internalType": "address",
          "name": "payer",
          "type": "address"
        },
        {
          "internalType": "address",
          "name": "recipient",
          "type": "address"
        },
        {
          "internalType": "address",
          "name": "token",
          "type": "address"
        },
        {
          "internalType": "uint256",
          "name": "amount",
          "type": "uint256"
        },
        {
          "internalType": "uint256",
          "name": "interval",
          "type": "uint256"
        },
        {
          "internalType": "uint256",
          "name": "nextPayment",
          "type": "uint256"
        },
        {
          "internalType": "uint256",
          "name": "totalCap",
          "type": "uint256"
        },
        {
          "internalType": "uint256",
          "name": "totalSpent",
          "type": "uint256"
        },
        {
          "internalType": "address",
          "name": "sessionKey",
          "type": "address"
        },
        {
          "internalType": "bool",
          "name": "active",
          "type": "bool"
        }
      ],
      "stateMutability": "view",
      "type": "function"
    },
    {
      "inputs": [
        {
          "internalType": "uint256",
          "name": "amount",
          "type": "uint256"
        }
      ],
      "name": "withdrawPaymaster",
      "outputs": [],
      "stateMutability": "nonpayable",
      "type": "function"
    },
    {
      "stateMutability": "payable",
      "type": "receive"
    }
  ],
  "bytecode": "0x6080604052348015600f57600080fd5b5060017f9b779b17422d0df92223018b32b4d1fa46e071723d6817e2486d003becc55f0055600580546001600160a01b031916339081179091556000908152600460205260409020805460ff19166001179055611891806100716000396000f3fe6080604052600436106101185760003560e01c806371de0459116100a0578063b18e1d6011610064578063b18e1d601461042d578063c4a3ea0f1461045a578063dc311dd31461046d578063ec6b2fb914610582578063fd3738081461060157600080fd5b806371de045914610371578063783f223b1461039f5780638da5cb5b146103bf57806395144dc4146103f75780639c99f37a1461041757600080fd5b80632d5bbf60116100e75780632d5bbf60146101a65780632ed11be71461028d578063449a7e7d146102f1578063551530d6146103115780635583a9301461035157600080fd5b80630ecd471f146101245780630ff3d60c14610146578063162a0cf814610166578063212350831461018657600080fd5b3661011f57005b600080fd5b34801561013057600080fd5b5061014461013f3660046115be565b61062e565b005b34801561015257600080fd5b506101446101613660046115fa565b6106dc565b34801561017257600080fd5b50610144610181366004611626565b6107b9565b34801561019257600080fd5b506101446101a1366004611626565b610ac0565b3480156101b257600080fd5b506102286101c1366004611626565b60016020819052600091825260409091208054918101546002820154600383015460048401546005850154600686015460078701546008909701546001600160a01b039889169896871697958716969495939492939192811690600160a01b900460ff168a565b604080516001600160a01b039b8c168152998b1660208b0152978a16978901979097526060880195909552608087019390935260a086019190915260c085015260e0840152909216610100820152901515610120820152610140015b60405180910390f35b34801561029957600080fd5b506102ad6102a836600461163f565b610bac565b6040516102849190600060a0820190508251825260208301516020830152604083015160408301526060830151606083015260808301511515608083015292915050565b3480156102fd57600080fd5b5061014461030c366004611626565b610c3d565b34801561031d57600080fd5b5061034161032c366004611661565b60046020526000908152604090205460ff1681565b6040519015158152602001610284565b34801561035d57600080fd5b5061034161036c366004611626565b610d9a565b34801561037d57600080fd5b5061039161038c366004611683565b610df3565b604051908152602001610284565b3480156103ab57600080fd5b506101446103ba3660046116e2565b61111b565b3480156103cb57600080fd5b506005546103df906001600160a01b031681565b6040516001600160a01b039091168152602001610284565b34801561040357600080fd5b5061014461041236600461163f565b611203565b34801561042357600080fd5b5061039160005481565b34801561043957600080fd5b50610391610448366004611661565b60066020526000908152604090205481565b610144610468366004611661565b6113f9565b34801561047957600080fd5b50610575610488366004611626565b6040805161014081018252600080825260208201819052918101829052606081018290526080810182905260a0810182905260c0810182905260e0810182905261010081018290526101208101919091525060009081526001602081815260409283902083516101408101855281546001600160a01b0390811682529382015484169281019290925260028101548316938201939093526003830154606082015260048301546080820152600583015460a0820152600683015460c0820152600783015460e0820152600890920154908116610100830152600160a01b900460ff16151561012082015290565b604051610284919061170c565b34801561058e57600080fd5b506105d761059d36600461163f565b6002602081815260009384526040808520909152918352912080546001820154928201546003830154600490930154919392909160ff1685565b6040805195865260208601949094529284019190915260608301521515608082015260a001610284565b34801561060d57600080fd5b5061039161061c366004611626565b60036020526000908152604090205481565b6005546001600160a01b031633146106795760405162461bcd60e51b81526020600482015260096024820152682737ba1037bbb732b960b91b60448201526064015b60405180910390fd5b6001600160a01b038216600081815260046020908152604091829020805460ff19168515159081179091558251938452908301527f5d6cede305e41196d5adf3679d914166c52f2892e71781ef6fc51cb9df5b3407910160405180910390a15050565b8160005481106106fe5760405162461bcd60e51b8152600401610670906117bf565b6000838152600160205260409020546001600160a01b031633146107505760405162461bcd60e51b81526020600482015260096024820152682737ba103830bcb2b960b91b6044820152606401610670565b60008381526001602090815260409182902060080180546001600160a01b0319166001600160a01b038616908117909155915191825284917f8411a90e3e3862b98b3d993b4c12a39b041675c901901edcc0827fa827e3622b91015b60405180910390a2505050565b6107c16114a6565b8060005481106107e35760405162461bcd60e51b8152600401610670906117bf565b600082815260016020908152604080832033845260049092529091205460ff168061081a575060088101546001600160a01b031633145b6108665760405162461bcd60e51b815260206004820152601760248201527f4e6f7420617574686f72697a6564206578656375746f720000000000000000006044820152606401610670565b6008810154600160a01b900460ff166108b95760405162461bcd60e51b8152602060048201526015602482015274537562736372697074696f6e20696e61637469766560581b6044820152606401610670565b80600501544210156109035760405162461bcd60e51b815260206004820152601360248201527214185e5b595b9d081b9bdd08191d59481e595d606a1b6044820152606401610670565b6006810154156109695780600601548160030154826007015461092691906117fc565b11156109695760405162461bcd60e51b8152602060048201526012602482015271151bdd185b0818d85c08195e18d95959195960721b6044820152606401610670565b6000838152600360205260408120805482906109849061180f565b919050819055905081600301548260070160008282546109a491906117fc565b909155505060048201546109b890426117fc565b60058301556040805160a08101825285815260208082018481526003808701805485870190815242606087019081526000608088018181528d825260028089528a83208c845290985298902096518755935160018088019190915590518686015592519185019190915593516004909301805460ff191693151593909317909255845491850154925490850154610a60936001600160a01b03918216938216929116906114c2565b6003820154604080519182524260208301523391839187917f2727caf80b6da2dfa4408df2026c1fe59761d4b9184f422b225772bb9c3b7ee2910160405180910390a4505050610abd600160008051602061183c83398151915255565b50565b806000548110610ae25760405162461bcd60e51b8152600401610670906117bf565b600082815260016020526040902080546001600160a01b0316331480610b14575060088101546001600160a01b031633145b80610b2e57503360009081526004602052604090205460ff165b610b6b5760405162461bcd60e51b815260206004820152600e60248201526d139bdd08185d5d1a1bdc9a5e995960921b6044820152606401610670565b60088101805460ff60a01b1916905560405133815283907f533734a768f070673b823079652464b7e002bb51cdf15e3108209f397425225f906020016107ac565b610be06040518060a00160405280600081526020016000815260200160008152602001600081526020016000151581525090565b506000828152600260208181526040808420858552825292839020835160a081018552815481526001820154928101929092529182015492810192909252600381015460608301526004015460ff16151560808201525b92915050565b610c456114a6565b33600090815260066020526040902054811115610c9b5760405162461bcd60e51b8152602060048201526014602482015273496e73756666696369656e742062616c616e636560601b6044820152606401610670565b3360009081526006602052604081208054839290610cba908490611828565b9091555050604051600090339083908381818185875af1925050503d8060008114610d01576040519150601f19603f3d011682016040523d82523d6000602084013e610d06565b606091505b5050905080610d4d5760405162461bcd60e51b8152602060048201526013602482015272115512081d1c985b9cd9995c8819985a5b1959606a1b6044820152606401610670565b60405182815233907f4bce4a4ca68d82b29c04a390ac4303f7079cf9028d69784bf345e07ae54dc7899060200160405180910390a250610abd600160008051602061183c83398151915255565b6000816000548110610dbe5760405162461bcd60e51b8152600401610670906117bf565b60008381526001602052604090206008810154600160a01b900460ff168015610deb575080600501544210155b949350505050565b60006001600160a01b038716610e3c5760405162461bcd60e51b815260206004820152600e60248201526d16995c9bc81c9958da5c1a595b9d60921b6044820152606401610670565b6001600160a01b038616610e7f5760405162461bcd60e51b815260206004820152600a6024820152692d32b937903a37b5b2b760b11b6044820152606401610670565b60008511610ebd5760405162461bcd60e51b815260206004820152600b60248201526a16995c9bc8185b5bdd5b9d60aa1b6044820152606401610670565b60008411610efd5760405162461bcd60e51b815260206004820152600d60248201526c16995c9bc81a5b9d195c9d985b609a1b6044820152606401610670565b600080549080610f0c8361180f565b919050559050604051806101400160405280336001600160a01b03168152602001886001600160a01b03168152602001876001600160a01b0316815260200186815260200185815260200142815260200184815260200160008152602001836001600160a01b03168152602001600115158152506001600083815260200190815260200160002060008201518160000160006101000a8154816001600160a01b0302191690836001600160a01b0316021790555060208201518160010160006101000a8154816001600160a01b0302191690836001600160a01b0316021790555060408201518160020160006101000a8154816001600160a01b0302191690836001600160a01b03160217905550606082015181600301556080820151816004015560a0820151816005015560c0820151816006015560e082015181600701556101008201518160080160006101000a8154816001600160a01b0302191690836001600160a01b031602179055506101208201518160080160146101000a81548160ff021916908315150217905550905050866001600160a01b0316336001600160a01b0316827f3a1d21bece43c85b5a9afdb7ec13187791f0d64dec190a38b6fb0ea242cf49bf8989898960405161110994939291906001600160a01b0394909416845260208401929092526040830152606082015260800190565b60405180910390a49695505050505050565b3360009081526004602052604090205460ff1661116a5760405162461bcd60e51b815260206004820152600d60248201526c2737ba103090313ab7323632b960991b6044820152606401610670565b6001600160a01b0382166000908152600660205260409020548111156111d25760405162461bcd60e51b815260206004820152601e60248201527f496e73756666696369656e74207061796d61737465722062616c616e636500006044820152606401610670565b6001600160a01b038216600090815260066020526040812080548392906111fa908490611828565b90915550505050565b61120b6114a6565b81600054811061122d5760405162461bcd60e51b8152600401610670906117bf565b6000838152600160208190526040909120908101546001600160a01b0316331461128d5760405162461bcd60e51b8152602060048201526011602482015270139bdd081d1a19481c9958da5c1a595b9d607a1b6044820152606401610670565b6000848152600260208181526040808420878552909152909120908101546112eb5760405162461bcd60e51b8152602060048201526011602482015270139bc81c185e5b595b9d081c9958dbdc99607a1b6044820152606401610670565b600481015460ff16156113335760405162461bcd60e51b815260206004820152601060248201526f105b1c9958591e481c99599d5b99195960821b6044820152606401610670565b60048101805460ff19166001179055600281015460078301541061136f5780600201548260070160008282546113699190611828565b90915550505b600182015482546002808401549085015461139c936001600160a01b0391821693908216929116906114c2565b83857f0d873fe5f6868437feb15563953001c95c36d7fe14c7c6c13392c0143dc4ad7383600201546040516113d391815260200190565b60405180910390a35050506113f5600160008051602061183c83398151915255565b5050565b600034116114385760405162461bcd60e51b815260206004820152600c60248201526b16995c9bc819195c1bdcda5d60a21b6044820152606401610670565b6001600160a01b038116600090815260066020526040812080543492906114609084906117fc565b90915550506040513481526001600160a01b038216907fbc7ca18aabaed00211fcdeab040a07bab11e595ae73f83568cf0dda3d4010ea09060200160405180910390a250565b6114ae6114fe565b600260008051602061183c83398151915255565b6114d0848484846001611530565b6114f857604051635274afe760e01b81526001600160a01b0385166004820152602401610670565b50505050565b60008051602061183c8339815191525460020361152e57604051633ee5aeb560e01b815260040160405180910390fd5b565b6040516323b872dd60e01b60008181526001600160a01b038781166004528616602452604485905291602083606481808c5af192506001600051148316611590578383151615611583573d6000823e3d81fd5b6000883b113d1516831692505b60405250600060605295945050505050565b80356001600160a01b03811681146115b957600080fd5b919050565b600080604083850312156115d157600080fd5b6115da836115a2565b9150602083013580151581146115ef57600080fd5b809150509250929050565b6000806040838503121561160d57600080fd5b8235915061161d602084016115a2565b90509250929050565b60006020828403121561163857600080fd5b5035919050565b6000806040838503121561165257600080fd5b50508035926020909101359150565b60006020828403121561167357600080fd5b61167c826115a2565b9392505050565b60008060008060008060c0878903121561169c57600080fd5b6116a5876115a2565b95506116b3602088016115a2565b94506040870135935060608701359250608087013591506116d660a088016115a2565b90509295509295509295565b600080604083850312156116f557600080fd5b6116fe836115a2565b946020939093013593505050565b81516001600160a01b031681526101408101602083015161173860208401826001600160a01b03169052565b50604083015161175360408401826001600160a01b03169052565b50606083015160608301526080830151608083015260a083015160a083015260c083015160c083015260e083015160e08301526101008301516117a26101008401826001600160a01b03169052565b506101208301516117b861012084018215159052565b5092915050565b6020808252600d908201526c14dd58881b9bdd08199bdd5b99609a1b604082015260600190565b634e487b7160e01b600052601160045260246000fd5b80820180821115610c3757610c376117e6565b600060018201611821576118216117e6565b5060010190565b81810381811115610c3757610c376117e656fe9b779b17422d0df92223018b32b4d1fa46e071723d6817e2486d003becc55f00a26469706673582212204012b1ba80870d12c446c05134404f71e08db3770a97631cdfdb67acf376040b64736f6c634300081a0033",
  "linkReferences": {},
  "deployedLinkReferences": {}
}