{
  "_format": "hh-sol-artifact-1",
  "contractName": "SubscriptionWallet",
  "sourceName": "contracts/SubscriptionWallet.sol",
  "abi": [
    {
      "inputs": [
        {
          "internalType": "address",
          "name": "_entryPoint",
          "type": "address"
        },
        {
          "internalType": "address",
          "name": "_registry",
          "type": "address"
        },
        {
          "internalType": "address",
          "name": "_owner",
          "type": "address"
        }
      ],
      "stateMutability": "nonpayable",
      "type": "constructor"
    },
    {
      "inputs": [],
      "name": "ECDSAInvalidSignature",
      "type": "error"
    },
    {
      "inputs": [
        {
          "internalType": "uint256",
          "name": "length",
          "type": "uint256"
        }
      ],
      "name": "ECDSAInvalidSignatureLength",
      "type": "error"
    },
    {
      "inputs": [
        {
          "internalType": "bytes32",
          "name": "s",
          "type": "bytes32"
        }
      ],
      "name": "ECDSAInvalidSignatureS",
      "type": "error"
    },
    {
      "inputs": [],
      "name": "ReentrancyGuardReentrantCall",
      "type": "error"
    },
    {
      "inputs": [
        {
          "internalType": "address",
          "name": "token",
          "type": "address"
        }
      ],
      "name": "SafeERC20FailedOperation",
      "type": "error"
    },
    {
      "anonymous": false,
      "inputs": [
        {
          "indexed": true,
          "internalType": "address",
          "name": "sender",
          "type": "address"
        },
        {
          "indexed": false,
          "internalType": "uint256",
          "name": "amount",
          "type": "uint256"
        }
      ],
      "name": "ETHReceived",
      "type": "event"
    },
    {
      "anonymous": false,
      "inputs": [
        {
          "indexed": true,
          "internalType": "address",
          "name": "oldOwner",
          "type": "address"
        },
        {
          "indexed": true,
          "internalType": "address",
          "name": "newOwner",
          "type": "address"
        }
      ],
      "name": "OwnershipTransferred",
      "type": "event"
    },
    {
      "anonymous": false,
      "inputs": [
        {
          "indexed": true,
          "internalType": "address",
          "name": "service",
          "type": "address"
        },
        {
          "indexed": true,
          "internalType": "address",
          "name": "token",
          "type": "address"
        },
        {
          "indexed": false,
          "internalType": "uint256",
          "name": "amount",
          "type": "uint256"
        },
        {
          "indexed": false,
          "internalType": "uint256",
          "name": "totalPaid",
          "type": "uint256"
        },
        {
          "indexed": false,
          "internalType": "uint256",
          "name": "nextClaimAt",
          "type": "uint256"
        }
      ],
      "name": "PaymentClaimed",
      "type": "event"
    },
    {
      "anonymous": false,
      "inputs": [
        {
          "indexed": true,
          "internalType": "address",
          "name": "service",
          "type": "address"
        },
        {
          "indexed": true,
          "internalType": "address",
          "name": "token",
          "type": "address"
        },
        {
          "indexed": false,
          "internalType": "uint256",
          "name": "amountPerCycle",
          "type": "uint256"
        },
        {
          "indexed": false,
          "internalType": "uint256",
          "name": "totalCap",
          "type": "uint256"
        },
        {
          "indexed": false,
          "internalType": "uint256",
          "name": "nextClaimAt",
          "type": "uint256"
        }
      ],
      "name": "Subscribed",
      "type": "event"
    },
    {
      "anonymous": false,
      "inputs": [
        {
          "indexed": true,
          "internalType": "address",
          "name": "token",
          "type": "address"
        },
        {
          "indexed": false,
          "internalType": "uint256",
          "name": "amount",
          "type": "uint256"
        }
      ],
      "name": "TokenDeposited",
      "type": "event"
    },
    {
      "anonymous": false,
      "inputs": [
        {
          "indexed": true,
          "internalType": "address",
          "name": "token",
          "type": "address"
        },
        {
          "indexed": false,
          "internalType": "uint256",
          "name": "amount",
          "type": "uint256"
        }
      ],
      "name": "TokenWithdrawn",
      "type": "event"
    },
    {
      "anonymous": false,
      "inputs": [
        {
          "indexed": true,
          "internalType": "address",
          "name": "service",
          "type": "address"
        },
        {
          "indexed": false,
          "internalType": "address",
          "name": "cancelledBy",
          "type": "address"
        }
      ],
      "name": "Unsubscribed",
      "type": "event"
    },
    {
      "inputs": [],
      "name": "CLAIM_MAGIC",
      "outputs": [
        {
          "internalType": "bytes4",
          "name": "",
          "type": "bytes4"
        }
      ],
      "stateMutability": "view",
      "type": "function"
    },
    {
      "inputs": [],
      "name": "SUBSCRIPTION_INTERVAL",
      "outputs": [
        {
          "internalType": "uint256",
          "name": "",
          "type": "uint256"
        }
      ],
      "stateMutability": "view",
      "type": "function"
    },
    {
      "inputs": [
        {
          "internalType": "address",
          "name": "token",
          "type": "address"
        },
        {
          "internalType": "uint256",
          "name": "amount",
          "type": "uint256"
        }
      ],
      "name": "depositToken",
      "outputs": [],
      "stateMutability": "nonpayable",
      "type": "function"
    },
    {
      "inputs": [],
      "name": "entryPoint",
      "outputs": [
        {
          "internalType": "contract IEntryPoint",
          "name": "",
          "type": "address"
        }
      ],
      "stateMutability": "view",
      "type": "function"
    },
    {
      "inputs": [],
      "name": "entryPointBalance",
      "outputs": [
        {
          "internalType": "uint256",
          "name": "",
          "type": "uint256"
        }
      ],
      "stateMutability": "view",
      "type": "function"
    },
    {
      "inputs": [
        {
          "internalType": "address",
          "name": "target",
          "type": "address"
        },
        {
          "internalType": "uint256",
          "name": "value",
          "type": "uint256"
        },
        {
          "internalType": "bytes",
          "name": "data",
          "type": "bytes"
        }
      ],
      "name": "execute",
      "outputs": [],
      "stateMutability": "nonpayable",
      "type": "function"
    },
    {
      "inputs": [
        {
          "internalType": "address",
          "name": "service",
          "type": "address"
        }
      ],
      "name": "executeClaim",
      "outputs": [],
      "stateMutability": "nonpayable",
      "type": "function"
    },
    {
      "inputs": [],
      "name": "fundEntryPoint",
      "outputs": [],
      "stateMutability": "payable",
      "type": "function"
    },
    {
      "inputs": [
        {
          "internalType": "uint256",
          "name": "offset",
          "type": "uint256"
        },
        {
          "internalType": "uint256",
          "name": "limit",
          "type": "uint256"
        }
      ],
      "name": "getSubscribedServices",
      "outputs": [
        {
          "internalType": "address[]",
          "name": "result",
          "type": "address[]"
        }
      ],
      "stateMutability": "view",
      "type": "function"
    },
    {
      "inputs": [],
      "name": "getSubscribedServicesCount",
      "outputs": [
        {
          "internalType": "uint256",
          "name": "",
          "type": "uint256"
        }
      ],
      "stateMutability": "view",
      "type": "function"
    },
    {
      "inputs": [
        {
          "internalType": "address",
          "name": "service",
          "type": "address"
        }
      ],
      "name": "getSubscription",
      "outputs": [
        {
          "components": [
            {
              "internalType": "address",
              "name": "token",
              "type": "address"
            },
            {
              "internalType": "uint256",
              "name": "amountPerCycle",
              "type": "uint256"
            },
            {
              "internalType": "uint256",
              "name": "totalCap",
              "type": "uint256"
            },
            {
              "internalType": "uint256",
              "name": "totalPaid",
              "type": "uint256"
            },
            {
              "internalType": "uint256",
              "name": "subscribedAt",
              "type": "uint256"
            },
            {
              "internalType": "uint256",
              "name": "nextClaimAt",
              "type": "uint256"
            },
            {
              "internalType": "bool",
              "name": "active",
              "type": "bool"
            }
          ],
          "internalType": "struct SubscriptionWallet.Subscription",
          "name": "",
          "type": "tuple"
        }
      ],
      "stateMutability": "view",
      "type": "function"
    },
    {
      "inputs": [
        {
          "internalType": "address",
          "name": "service",
          "type": "address"
        }
      ],
      "name": "isDue",
      "outputs": [
        {
          "internalType": "bool",
          "name": "",
          "type": "bool"
        }
      ],
      "stateMutability": "view",
      "type": "function"
    },
    {
      "inputs": [
        {
          "internalType": "address",
          "name": "service",
          "type": "address"
        }
      ],
      "name": "isSubscribed",
      "outputs": [
        {
          "internalType": "bool",
          "name": "",
          "type": "bool"
        }
      ],
      "stateMutability": "view",
      "type": "function"
    },
    {
      "inputs": [],
      "name": "owner",
      "outputs": [
        {
          "internalType": "address",
          "name": "",
          "type": "address"
        }
      ],
      "stateMutability": "view",
      "type": "function"
    },
    {
      "inputs": [],
      "name": "registry",
      "outputs": [
        {
          "internalType": "contract IPlatformRegistry",
          "name": "",
          "type": "address"
        }
      ],
      "stateMutability": "view",
      "type": "function"
    },
    {
      "inputs": [
        {
          "internalType": "address",
          "name": "service",
          "type": "address"
        },
        {
          "internalType": "address",
          "name": "token",
          "type": "address"
        },
        {
          "internalType": "uint256",
          "name": "amountPerCycle",
          "type": "uint256"
        },
        {
          "internalType": "uint256",
          "name": "totalCap",
          "type": "uint256"
        },
        {
          "internalType": "bool",
          "name": "startImmediately",
          "type": "bool"
        }
      ],
      "name": "subscribe",
      "outputs": [],
      "stateMutability": "nonpayable",
      "type": "function"
    },
    {
      "inputs": [
        {
          "internalType": "uint256",
          "name": "",
          "type": "uint256"
        }
      ],
      "name": "subscribedServices",
      "outputs": [
        {
          "internalType": "address",
          "name": "",
          "type": "address"
        }
      ],
      "stateMutability": "view",
      "type": "function"
    },
    {
      "inputs": [
        {
          "internalType": "address",
          "name": "newOwner",
          "type": "address"
        }
      ],
      "name": "transferOwnership",
      "outputs": [],
      "stateMutability": "nonpayable",
      "type": "function"
    },
    {
      "inputs": [
        {
          "internalType": "address",
          "name": "service",
          "type": "address"
        }
      ],
      "name": "unsubscribe",
      "outputs": [],
      "stateMutability": "nonpayable",
      "type": "function"
    },
    {
      "inputs": [
        {
          "components": [
            {
              "internalType": "address",
              "name": "sender",
              "type": "address"
            },
            {
              "internalType": "uint256",
              "name": "nonce",
              "type": "uint256"
            },
            {
              "internalType": "bytes",
              "name": "initCode",
              "type": "bytes"
            },
            {
              "internalType": "bytes",
              "name": "callData",
              "type": "bytes"
            },
            {
              "internalType": "uint256",
              "name": "callGasLimit",
              "type": "uint256"
            },
            {
              "internalType": "uint256",
              "name": "verificationGasLimit",
              "type": "uint256"
            },
            {
              "internalType": "uint256",
              "name": "preVerificationGas",
              "type": "uint256"
            },
            {
              "internalType": "uint256",
              "name": "maxFeePerGas",
              "type": "uint256"
            },
            {
              "internalType": "uint256",
              "name": "maxPriorityFeePerGas",
              "type": "uint256"
            },
            {
              "internalType": "bytes",
              "name": "paymasterAndData",
              "type": "bytes"
            },
            {
              "internalType": "bytes",
              "name": "signature",
              "type": "bytes"
            }
          ],
          "internalType": "struct UserOperation",
          "name": "userOp",
          "type": "tuple"
        },
        {
          "internalType": "bytes32",
          "name": "userOpHash",
          "type": "bytes32"
        },
        {
          "internalType": "uint256",
          "name": "missingAccountFunds",
          "type": "uint256"
        }
      ],
      "name": "validateUserOp",
      "outputs": [
        {
          "internalType": "uint256",
          "name": "validationData",
          "type": "uint256"
        }
      ],
      "stateMutability": "nonpayable",
      "type": "function"
    },
    {
      "inputs": [
        {
          "internalType": "uint256",
          "name": "amount",
          "type": "uint256"
        }
      ],
      "name": "withdrawETH",
      "outputs": [],
      "stateMutability": "nonpayable",
      "type": "function"
    },
    {
      "inputs": [
        {
          "internalType": "uint256",
          "name": "amount",
          "type": "uint256"
        }
      ],
      "name": "withdrawFromEntryPoint",
      "outputs": [],
      "stateMutability": "nonpayable",
      "type": "function"
    },
    {
      "inputs": [
        {
          "internalType": "address",
          "name": "token",
          "type": "address"
        },
        {
          "internalType": "uint256",
          "name": "amount",
          "type": "uint256"
        }
      ],
      "name": "withdrawToken",
      "outputs": [],
      "stateMutability": "nonpayable",
      "type": "function"
    },
    {
      "stateMutability": "payable",
      "type": "receive"
    }
  ],
  "bytecode": "0x60c060405234801562000010575f80fd5b50604051620023783803806200237883398101604081905262000033916200017c565b60017f9b779b17422d0df92223018b32b4d1fa46e071723d6817e2486d003becc55f00556001600160a01b038316620000a55760405162461bcd60e51b815260206004820152600f60248201526e16995c9bc8195b9d1c9e541bda5b9d608a1b60448201526064015b60405180910390fd5b6001600160a01b038216620000ed5760405162461bcd60e51b815260206004820152600d60248201526c5a65726f20726567697374727960981b60448201526064016200009c565b6001600160a01b038116620001325760405162461bcd60e51b815260206004820152600a6024820152692d32b9379037bbb732b960b11b60448201526064016200009c565b6001600160a01b0392831660805290821660a0525f80546001600160a01b03191691909216179055620001c3565b80516001600160a01b038116811462000177575f80fd5b919050565b5f805f606084860312156200018f575f80fd5b6200019a8462000160565b9250620001aa6020850162000160565b9150620001ba6040850162000160565b90509250925092565b60805160a05161214d6200022b5f395f81816103550152818161058a01528181610e13015261181601525f81816104000152818161051d01528181610a6b01528181610ab101528181610bbb01528181610c82015281816112d10152611327015261214d5ff3fe60806040526004361061013f575f3560e01c80638da5cb5b116100b3578063b92ae87c1161006d578063b92ae87c14610441578063be3351481461048b578063d3b180d4146104a1578063ec57eb20146104b5578063f14210a6146104d4578063f2fde38b146104f3575f80fd5b80638da5cb5b1461037757806393c180ca146103955780639e281a98146103c8578063a9dff94f146103e7578063b0d691fe146103ef578063b61d27f614610422575f80fd5b8063577798941161010457806357779894146102a75780636b1a9999146102bb5780636c99f3a6146102da5780636de551a5146103065780637262561c146103255780637b10399914610344575f80fd5b80630abf23da1461017f5780630cbebc24146101a05780632af3e12c14610224578063338b5dea1461025b5780633a871cdd1461027a575f80fd5b3661017b5760405134815233907fbfe611b001dfcd411432f7bf0d79b82b4b2ee81511edac123a3403c357fb972a9060200160405180910390a2005b5f80fd5b34801561018a575f80fd5b5061019e610199366004611d4b565b610512565b005b3480156101ab575f80fd5b506101bf6101ba366004611d4b565b610928565b60405161021b919081516001600160a01b031681526020808301519082015260408083015190820152606080830151908201526080808301519082015260a0828101519082015260c09182015115159181019190915260e00190565b60405180910390f35b34801561022f575f80fd5b5061024361023e366004611d66565b6109db565b6040516001600160a01b03909116815260200161021b565b348015610266575f80fd5b5061019e610275366004611d7d565b610a03565b348015610285575f80fd5b50610299610294366004611da7565b610a5f565b60405190815260200161021b565b3480156102b2575f80fd5b50610299610ba4565b3480156102c6575f80fd5b5061019e6102d5366004611d66565b610c31565b3480156102e5575f80fd5b506102f96102f4366004611df6565b610cde565b60405161021b9190611e16565b348015610311575f80fd5b5061019e610320366004611e6f565b610dcb565b348015610330575f80fd5b5061019e61033f366004611d4b565b61115e565b34801561034f575f80fd5b506102437f000000000000000000000000000000000000000000000000000000000000000081565b348015610382575f80fd5b505f54610243906001600160a01b031681565b3480156103a0575f80fd5b506103af633e0f173b60e11b81565b6040516001600160e01b0319909116815260200161021b565b3480156103d3575f80fd5b5061019e6103e2366004611d7d565b61123f565b61019e6112bc565b3480156103fa575f80fd5b506102437f000000000000000000000000000000000000000000000000000000000000000081565b34801561042d575f80fd5b5061019e61043c366004611eca565b61131c565b34801561044c575f80fd5b5061047b61045b366004611d4b565b6001600160a01b03165f9081526001602052604090206006015460ff1690565b604051901515815260200161021b565b348015610496575f80fd5b5061029962278d0081565b3480156104ac575f80fd5b50600254610299565b3480156104c0575f80fd5b5061047b6104cf366004611d4b565b6113f8565b3480156104df575f80fd5b5061019e6104ee366004611d66565b61142b565b3480156104fe575f80fd5b5061019e61050d366004611d4b565b61155a565b336001600160a01b037f000000000000000000000000000000000000000000000000000000000000000016146105635760405162461bcd60e51b815260040161055a90611f4c565b60405180910390fd5b61056b611625565b604051633af32abf60e01b81526001600160a01b0382811660048301527f00000000000000000000000000000000000000000000000000000000000000001690633af32abf90602401602060405180830381865afa1580156105cf573d5f803e3d5ffd5b505050506040513d601f19601f820116820180604052508101906105f39190611f78565b61063f5760405162461bcd60e51b815260206004820152601b60248201527f53573a2073657276696365206e6f742077686974656c69737465640000000000604482015260640161055a565b6001600160a01b0381165f908152600160205260409020600681015460ff1661069f5760405162461bcd60e51b815260206004820152601260248201527114d5ce881b9bdd081cdd589cd8dc9a58995960721b604482015260640161055a565b80600501544210156106e15760405162461bcd60e51b815260206004820152600b60248201526a53573a206e6f742064756560a81b604482015260640161055a565b60028101541561074b578060020154816001015482600301546107049190611fa7565b111561074b5760405162461bcd60e51b815260206004820152601660248201527514d5ce881d1bdd185b0818d85c08195e18d95959195960521b604482015260640161055a565b600181015481546040516370a0823160e01b815230600482015282916001600160a01b0316906370a0823190602401602060405180830381865afa158015610795573d5f803e3d5ffd5b505050506040513d601f19601f820116820180604052508101906107b99190611fba565b10156108075760405162461bcd60e51b815260206004820152601860248201527f53573a20696e73756666696369656e742062616c616e63650000000000000000604482015260640161055a565b80826003015f82825461081a9190611fa7565b9091555061082d905062278d0042611fa7565b600583015560028201541580159061084d57508160020154826003015410155b1561089d5760068201805460ff191690556040513081526001600160a01b038416907f7773c30acd0762ed6b4b92a9aa2c6b3c074e29ad93b334cbed8ba807c596f13a9060200160405180910390a25b81546108b3906001600160a01b03168483611640565b8154600383015460058401546040805185815260208101939093528201526001600160a01b03918216918516907f4af8a6a2ed0d22e383939cab81d905f1a9f9df00e78d004f44238e908fc9ca139060600160405180910390a3505061092560015f805160206120f883398151915255565b50565b61096c6040518060e001604052805f6001600160a01b031681526020015f81526020015f81526020015f81526020015f81526020015f81526020015f151581525090565b506001600160a01b039081165f90815260016020818152604092839020835160e0810185528154909516855291820154908401526002810154918301919091526003810154606083015260048101546080830152600581015460a08301526006015460ff16151560c082015290565b600281815481106109ea575f80fd5b5f918252602090912001546001600160a01b0316905081565b610a186001600160a01b03831633308461167a565b816001600160a01b03167fbc7c8a4d8049a3f99a02f2a20640c206a2e4d3f2fa54fd20da9f01fda3620cda82604051610a5391815260200190565b60405180910390a25050565b5f336001600160a01b037f00000000000000000000000000000000000000000000000000000000000000001614610aa85760405162461bcd60e51b815260040161055a90611f4c565b8115610b68575f7f00000000000000000000000000000000000000000000000000000000000000006001600160a01b0316836040515f6040518083038185875af1925050503d805f8114610b17576040519150601f19603f3d011682016040523d82523d5f602084013e610b1c565b606091505b5050905080610b665760405162461bcd60e51b815260206004820152601660248201527514d5ce8819d85cc81c1c99599d5b990819985a5b195960521b604482015260640161055a565b505b610b7e610b79610140860186611fd1565b6116b0565b15610b9357610b8c846116f3565b9050610b9d565b610b8c848461199a565b9392505050565b6040516370a0823160e01b81523060048201525f907f00000000000000000000000000000000000000000000000000000000000000006001600160a01b0316906370a0823190602401602060405180830381865afa158015610c08573d5f803e3d5ffd5b505050506040513d601f19601f82011682018060405250810190610c2c9190611fba565b905090565b5f546001600160a01b03163314610c5a5760405162461bcd60e51b815260040161055a9061201b565b5f5460405163040b850f60e31b81526001600160a01b039182166004820152602481018390527f00000000000000000000000000000000000000000000000000000000000000009091169063205c2878906044015f604051808303815f87803b158015610cc5575f80fd5b505af1158015610cd7573d5f803e3d5ffd5b5050505050565b6002546060905f81610cf08587611fa7565b11610d0457610cff8486611fa7565b610d06565b815b9050610d128582612042565b67ffffffffffffffff811115610d2a57610d2a612055565b604051908082528060200260200182016040528015610d53578160200160208202803683370190505b509250845b81811015610dc25760028181548110610d7357610d73612069565b5f918252602090912001546001600160a01b031684610d928884612042565b81518110610da257610da2612069565b6001600160a01b0390921660209283029190910190910152600101610d58565b50505092915050565b5f546001600160a01b03163314610df45760405162461bcd60e51b815260040161055a9061201b565b604051633af32abf60e01b81526001600160a01b0386811660048301527f00000000000000000000000000000000000000000000000000000000000000001690633af32abf90602401602060405180830381865afa158015610e58573d5f803e3d5ffd5b505050506040513d601f19601f82011682018060405250810190610e7c9190611f78565b610ec85760405162461bcd60e51b815260206004820152601b60248201527f53573a2073657276696365206e6f742077686974656c69737465640000000000604482015260640161055a565b6001600160a01b0385165f9081526001602052604090206006015460ff1615610f2c5760405162461bcd60e51b815260206004820152601660248201527514d5ce88185b1c9958591e481cdd589cd8dc9a58995960521b604482015260640161055a565b6001600160a01b038416610f735760405162461bcd60e51b815260206004820152600e60248201526d29ab9d103d32b937903a37b5b2b760911b604482015260640161055a565b5f8311610fb45760405162461bcd60e51b815260206004820152600f60248201526e14d5ce881e995c9bc8185b5bdd5b9d608a1b604482015260640161055a565b5f81610fcc57610fc762278d0042611fa7565b610fce565b425b90506040518060e00160405280866001600160a01b031681526020018581526020018481526020015f81526020014281526020018281526020016001151581525060015f886001600160a01b03166001600160a01b031681526020019081526020015f205f820151815f015f6101000a8154816001600160a01b0302191690836001600160a01b031602179055506020820151816001015560408201518160020155606082015181600301556080820151816004015560a0820151816005015560c0820151816006015f6101000a81548160ff021916908315150217905550905050600286908060018154018082558091505060019003905f5260205f20015f9091909190916101000a8154816001600160a01b0302191690836001600160a01b03160217905550846001600160a01b0316866001600160a01b03167f1faf2b5a74c296487268de9f9e3ddf269ca3980197cda4ee5c927ac895aeee8886868560405161114e939291909283526020830191909152604082015260600190565b60405180910390a3505050505050565b5f546001600160a01b031633146111875760405162461bcd60e51b815260040161055a9061201b565b6001600160a01b0381165f9081526001602052604090206006015460ff166111e65760405162461bcd60e51b815260206004820152601260248201527114d5ce881b9bdd081cdd589cd8dc9a58995960721b604482015260640161055a565b6001600160a01b0381165f81815260016020908152604091829020600601805460ff1916905590513381527f7773c30acd0762ed6b4b92a9aa2c6b3c074e29ad93b334cbed8ba807c596f13a910160405180910390a250565b5f546001600160a01b031633146112685760405162461bcd60e51b815260040161055a9061201b565b5f54611281906001600160a01b03848116911683611640565b816001600160a01b03167fa2bd9fcfcdba69f52bcd9a520846ad4bd685b187483f53efc42d035b2ddebff082604051610a5391815260200190565b60405163b760faf960e01b81523060048201527f00000000000000000000000000000000000000000000000000000000000000006001600160a01b03169063b760faf99034906024015f604051808303818588803b158015610cc5575f80fd5b336001600160a01b037f000000000000000000000000000000000000000000000000000000000000000016146113645760405162461bcd60e51b815260040161055a90611f4c565b61136c611625565b5f80856001600160a01b031685858560405161138992919061207d565b5f6040518083038185875af1925050503d805f81146113c3576040519150601f19603f3d011682016040523d82523d5f602084013e6113c8565b606091505b5091509150816113da57805160208201fd5b50506113f260015f805160206120f883398151915255565b50505050565b6001600160a01b0381165f908152600160205260408120600681015460ff168015610b9d57506005015442101592915050565b5f546001600160a01b031633146114545760405162461bcd60e51b815260040161055a9061201b565b61145c611625565b804710156114a35760405162461bcd60e51b81526020600482015260146024820152730a6ae7440d2dce6eaccccd2c6d2cadce8408aa8960631b604482015260640161055a565b5f80546040516001600160a01b039091169083908381818185875af1925050503d805f81146114ed576040519150601f19603f3d011682016040523d82523d5f602084013e6114f2565b606091505b50509050806115435760405162461bcd60e51b815260206004820152601760248201527f53573a20455448207472616e73666572206661696c6564000000000000000000604482015260640161055a565b5061092560015f805160206120f883398151915255565b5f546001600160a01b031633146115835760405162461bcd60e51b815260040161055a9061201b565b6001600160a01b0381166115cc5760405162461bcd60e51b815260206004820152601060248201526f53573a207a65726f206164647265737360801b604482015260640161055a565b5f80546040516001600160a01b03808516939216917f8be0079c531659141344cd1fd0a4f28419497f9722a3daafe3b4186f6b6457e091a35f80546001600160a01b0319166001600160a01b0392909216919091179055565b61162d611a42565b60025f805160206120f883398151915255565b61164d8383836001611a73565b61167557604051635274afe760e01b81526001600160a01b038416600482015260240161055a565b505050565b611688848484846001611ad5565b6113f257604051635274afe760e01b81526001600160a01b038516600482015260240161055a565b5f60048210156116c157505f6116ed565b633e0f173b60e11b6116d660045f858761208c565b6116df916120b3565b6001600160e01b0319161490505b92915050565b5f6024611704610140840184611fd1565b9050101561171457506001919050565b5f611723610140840184611fd1565b61173191600490829061208c565b81019061173e9190611d4b565b905061174d6060840184611fd1565b905060241461175f5750600192915050565b5f61176d6060850185611fd1565b61177b916004915f9161208c565b611784916120b3565b90506001600160e01b0319811663055f91ed60e11b146117a8575060019392505050565b5f6117b66060860186611fd1565b6117c491600490829061208c565b8101906117d19190611d4b565b9050826001600160a01b0316816001600160a01b0316146117f757506001949350505050565b604051633af32abf60e01b81526001600160a01b0384811660048301527f00000000000000000000000000000000000000000000000000000000000000001690633af32abf90602401602060405180830381865afa15801561185b573d5f803e3d5ffd5b505050506040513d601f19601f8201168201806040525081019061187f9190611f78565b61188e57506001949350505050565b6001600160a01b0383165f908152600160205260409020600681015460ff166118bd5750600195945050505050565b80600501544210156118d55750600195945050505050565b60028101541561190a578060020154816001015482600301546118f89190611fa7565b111561190a5750600195945050505050565b80546040516370a0823160e01b81523060048201525f916001600160a01b0316906370a0823190602401602060405180830381865afa15801561194f573d5f803e3d5ffd5b505050506040513d601f19601f820116820180604052508101906119739190611fba565b9050816001015481101561198e575060019695505050505050565b505f9695505050505050565b7f19457468657265756d205369676e6564204d6573736167653a0a3332000000005f908152601c829052603c81205f611a166119da610140870187611fd1565b8080601f0160208091040260200160405190810160405280939291908181526020018383808284375f920191909152508693925050611b429050565b5f549091506001600160a01b03808316911614611a38576001925050506116ed565b505f949350505050565b5f805160206120f883398151915254600203611a7157604051633ee5aeb560e01b815260040160405180910390fd5b565b60405163a9059cbb60e01b5f8181526001600160a01b038616600452602485905291602083604481808b5af1925060015f51148316611ac9578383151615611abd573d5f823e3d81fd5b5f873b113d1516831692505b60405250949350505050565b6040516323b872dd60e01b5f8181526001600160a01b038781166004528616602452604485905291602083606481808c5af1925060015f51148316611b31578383151615611b25573d5f823e3d81fd5b5f883b113d1516831692505b604052505f60605295945050505050565b5f805f80611b508686611b6a565b925092509250611b608282611bb3565b5090949350505050565b5f805f8351604103611ba1576020840151604085015160608601515f1a611b9388828585611c6f565b955095509550505050611bac565b505081515f91506002905b9250925092565b5f826003811115611bc657611bc66120e3565b03611bcf575050565b6001826003811115611be357611be36120e3565b03611c015760405163f645eedf60e01b815260040160405180910390fd5b6002826003811115611c1557611c156120e3565b03611c365760405163fce698f760e01b81526004810182905260240161055a565b6003826003811115611c4a57611c4a6120e3565b03611c6b576040516335e2f38360e21b81526004810182905260240161055a565b5050565b5f80807f7fffffffffffffffffffffffffffffff5d576e7357a4501ddfe92f46681b20a0841115611ca857505f91506003905082611d2d565b604080515f808252602082018084528a905260ff891692820192909252606081018790526080810186905260019060a0016020604051602081039080840390855afa158015611cf9573d5f803e3d5ffd5b5050604051601f1901519150506001600160a01b038116611d2457505f925060019150829050611d2d565b92505f91508190505b9450945094915050565b6001600160a01b0381168114610925575f80fd5b5f60208284031215611d5b575f80fd5b8135610b9d81611d37565b5f60208284031215611d76575f80fd5b5035919050565b5f8060408385031215611d8e575f80fd5b8235611d9981611d37565b946020939093013593505050565b5f805f60608486031215611db9575f80fd5b833567ffffffffffffffff811115611dcf575f80fd5b84016101608187031215611de1575f80fd5b95602085013595506040909401359392505050565b5f8060408385031215611e07575f80fd5b50508035926020909101359150565b602080825282518282018190525f9190848201906040850190845b81811015611e565783516001600160a01b031683529284019291840191600101611e31565b50909695505050505050565b8015158114610925575f80fd5b5f805f805f60a08688031215611e83575f80fd5b8535611e8e81611d37565b94506020860135611e9e81611d37565b935060408601359250606086013591506080860135611ebc81611e62565b809150509295509295909350565b5f805f8060608587031215611edd575f80fd5b8435611ee881611d37565b935060208501359250604085013567ffffffffffffffff80821115611f0b575f80fd5b818701915087601f830112611f1e575f80fd5b813581811115611f2c575f80fd5b886020828501011115611f3d575f80fd5b95989497505060200194505050565b60208082526012908201527114d5ce881b9bdd08115b9d1c9e541bda5b9d60721b604082015260600190565b5f60208284031215611f88575f80fd5b8151610b9d81611e62565b634e487b7160e01b5f52601160045260245ffd5b808201808211156116ed576116ed611f93565b5f60208284031215611fca575f80fd5b5051919050565b5f808335601e19843603018112611fe6575f80fd5b83018035915067ffffffffffffffff821115612000575f80fd5b602001915036819003821315612014575f80fd5b9250929050565b6020808252600d908201526c29ab9d103737ba1037bbb732b960991b604082015260600190565b818103818111156116ed576116ed611f93565b634e487b7160e01b5f52604160045260245ffd5b634e487b7160e01b5f52603260045260245ffd5b818382375f9101908152919050565b5f808585111561209a575f80fd5b838611156120a6575f80fd5b5050820193919092039150565b6001600160e01b031981358181169160048510156120db5780818660040360031b1b83161692505b505092915050565b634e487b7160e01b5f52602160045260245ffdfe9b779b17422d0df92223018b32b4d1fa46e071723d6817e2486d003becc55f00a2646970667358221220c30c63393ad91aaff6887b67c8ecb950a1cfcc817ea15ecd80332398c15a590f64736f6c63430008180033",
  "linkReferences": {},
  "deployedLinkReferences": {}
}