{
  "_format": "hh-sol-artifact-1",
  "contractName": "StreamingService",
  "sourceName": "contracts/ServiceBase.sol",
  "abi": [
    {
      "inputs": [],
      "stateMutability": "nonpayable",
      "type": "constructor"
    },
    {
      "inputs": [],
      "name": "ReentrancyGuardReentrantCall",
      "type": "error"
    },
    {
      "inputs": [
        {
          "internalType": "address",
          "name": "token",
          "type": "address"
        }
      ],
      "name": "SafeERC20FailedOperation",
      "type": "error"
    },
    {
      "anonymous": false,
      "inputs": [
        {
          "indexed": true,
          "internalType": "address",
          "name": "wallet",
          "type": "address"
        }
      ],
      "name": "MemberActivated",
      "type": "event"
    },
    {
      "anonymous": false,
      "inputs": [
        {
          "indexed": true,
          "internalType": "address",
          "name": "wallet",
          "type": "address"
        }
      ],
      "name": "MemberExpired",
      "type": "event"
    },
    {
      "anonymous": false,
      "inputs": [
        {
          "indexed": true,
          "internalType": "address",
          "name": "wallet",
          "type": "address"
        },
        {
          "indexed": true,
          "internalType": "address",
          "name": "token",
          "type": "address"
        },
        {
          "indexed": false,
          "internalType": "uint256",
          "name": "amount",
          "type": "uint256"
        },
        {
          "indexed": false,
          "internalType": "uint256",
          "name": "cycleNumber",
          "type": "uint256"
        },
        {
          "indexed": false,
          "internalType": "uint256",
          "name": "timestamp",
          "type": "uint256"
        }
      ],
      "name": "PaymentReceived",
      "type": "event"
    },
    {
      "anonymous": false,
      "inputs": [
        {
          "indexed": true,
          "internalType": "address",
          "name": "token",
          "type": "address"
        },
        {
          "indexed": false,
          "internalType": "uint256",
          "name": "amount",
          "type": "uint256"
        }
      ],
      "name": "RevenueWithdrawn",
      "type": "event"
    },
    {
      "anonymous": false,
      "inputs": [
        {
          "indexed": true,
          "internalType": "address",
          "name": "oldOwner",
          "type": "address"
        },
        {
          "indexed": true,
          "internalType": "address",
          "name": "newOwner",
          "type": "address"
        }
      ],
      "name": "ServiceOwnerUpdated",
      "type": "event"
    },
    {
      "inputs": [],
      "name": "PLAN_PRICE",
      "outputs": [
        {
          "internalType": "uint256",
          "name": "",
          "type": "uint256"
        }
      ],
      "stateMutability": "view",
      "type": "function"
    },
    {
      "inputs": [
        {
          "internalType": "address",
          "name": "wallet",
          "type": "address"
        },
        {
          "internalType": "address",
          "name": "token",
          "type": "address"
        },
        {
          "internalType": "uint256",
          "name": "amount",
          "type": "uint256"
        }
      ],
      "name": "acknowledgePayment",
      "outputs": [],
      "stateMutability": "nonpayable",
      "type": "function"
    },
    {
      "inputs": [
        {
          "internalType": "address",
          "name": "wallet",
          "type": "address"
        }
      ],
      "name": "expireMember",
      "outputs": [],
      "stateMutability": "nonpayable",
      "type": "function"
    },
    {
      "inputs": [
        {
          "internalType": "address",
          "name": "wallet",
          "type": "address"
        }
      ],
      "name": "getPaymentCount",
      "outputs": [
        {
          "internalType": "uint256",
          "name": "",
          "type": "uint256"
        }
      ],
      "stateMutability": "view",
      "type": "function"
    },
    {
      "inputs": [
        {
          "internalType": "address",
          "name": "wallet",
          "type": "address"
        }
      ],
      "name": "getPaymentHistory",
      "outputs": [
        {
          "components": [
            {
              "internalType": "uint256",
              "name": "amount",
              "type": "uint256"
            },
            {
              "internalType": "uint256",
              "name": "timestamp",
              "type": "uint256"
            },
            {
              "internalType": "uint256",
              "name": "cycleNumber",
              "type": "uint256"
            }
          ],
          "internalType": "struct ServiceBase.PaymentRecord[]",
          "name": "",
          "type": "tuple[]"
        }
      ],
      "stateMutability": "view",
      "type": "function"
    },
    {
      "inputs": [
        {
          "internalType": "address",
          "name": "",
          "type": "address"
        }
      ],
      "name": "isActiveMember",
      "outputs": [
        {
          "internalType": "bool",
          "name": "",
          "type": "bool"
        }
      ],
      "stateMutability": "view",
      "type": "function"
    },
    {
      "inputs": [
        {
          "internalType": "address",
          "name": "",
          "type": "address"
        }
      ],
      "name": "memberSince",
      "outputs": [
        {
          "internalType": "uint256",
          "name": "",
          "type": "uint256"
        }
      ],
      "stateMutability": "view",
      "type": "function"
    },
    {
      "inputs": [],
      "name": "serviceName",
      "outputs": [
        {
          "internalType": "string",
          "name": "",
          "type": "string"
        }
      ],
      "stateMutability": "view",
      "type": "function"
    },
    {
      "inputs": [],
      "name": "serviceOwner",
      "outputs": [
        {
          "internalType": "address",
          "name": "",
          "type": "address"
        }
      ],
      "stateMutability": "view",
      "type": "function"
    },
    {
      "inputs": [
        {
          "internalType": "address",
          "name": "",
          "type": "address"
        }
      ],
      "name": "tokenRevenue",
      "outputs": [
        {
          "internalType": "uint256",
          "name": "",
          "type": "uint256"
        }
      ],
      "stateMutability": "view",
      "type": "function"
    },
    {
      "inputs": [
        {
          "internalType": "address",
          "name": "",
          "type": "address"
        }
      ],
      "name": "totalReceivedFrom",
      "outputs": [
        {
          "internalType": "uint256",
          "name": "",
          "type": "uint256"
        }
      ],
      "stateMutability": "view",
      "type": "function"
    },
    {
      "inputs": [
        {
          "internalType": "address",
          "name": "newOwner",
          "type": "address"
        }
      ],
      "name": "transferServiceOwnership",
      "outputs": [],
      "stateMutability": "nonpayable",
      "type": "function"
    },
    {
      "inputs": [
        {
          "internalType": "address",
          "name": "token",
          "type": "address"
        },
        {
          "internalType": "uint256",
          "name": "amount",
          "type": "uint256"
        }
      ],
      "name": "withdrawRevenue",
      "outputs": [],
      "stateMutability": "nonpayable",
      "type": "function"
    },
    {
      "stateMutability": "payable",
      "type": "receive"
    }
  ],
  "bytecode": "0x608060405234801562000010575f80fd5b5060408051808201909152601381527f53747265616d696e675365727669636520763100000000000000000000000000602082015260017f9b779b17422d0df92223018b32b4d1fa46e071723d6817e2486d003becc55f00555f80546001600160a01b0319163317905560016200008882826200012e565b5050620001fa565b634e487b7160e01b5f52604160045260245ffd5b600181811c90821680620000b957607f821691505b602082108103620000d857634e487b7160e01b5f52602260045260245ffd5b50919050565b601f8211156200012957805f5260205f20601f840160051c81016020851015620001055750805b601f840160051c820191505b8181101562000126575f815560010162000111565b50505b505050565b81516001600160401b038111156200014a576200014a62000090565b62000162816200015b8454620000a4565b84620000de565b602080601f83116001811462000198575f8415620001805750858301515b5f19600386901b1c1916600185901b178555620001f2565b5f85815260208120601f198616915b82811015620001c857888601518255948401946001909101908401620001a7565b5085821015620001e657878501515f19600388901b60f8161c191681555b505060018460011b0185555b505050505050565b610b6880620002085f395ff3fe6080604052600436106100c2575f3560e01c80638b63c2671161007c578063a4f4d37911610057578063a4f4d3791461024b578063b497c8a014610281578063b5f6d339146102a0578063c5f8ac74146102cb575f80fd5b80638b63c267146101f55780639fdc7bc414610214578063a22a48f814610235575f80fd5b80630d469170146100cd5780631dd585911461010b5780633925754e1461012c57806345ecd02f146101575780634feb20ff146101955780637da2ba7c146101c9575f80fd5b366100c957005b5f80fd5b3480156100d8575f80fd5b506100f86100e7366004610975565b60066020525f908152604090205481565b6040519081526020015b60405180910390f35b348015610116575f80fd5b5061012a610125366004610975565b6102ea565b005b348015610137575f80fd5b506100f8610146366004610975565b60046020525f908152604090205481565b348015610162575f80fd5b50610185610171366004610975565b60056020525f908152604090205460ff1681565b6040519015158152602001610102565b3480156101a0575f80fd5b506100f86101af366004610975565b6001600160a01b03165f9081526002602052604090205490565b3480156101d4575f80fd5b506101e86101e3366004610975565b6103db565b6040516101029190610995565b348015610200575f80fd5b5061012a61020f3660046109ed565b61046a565b34801561021f575f80fd5b506102286105c9565b6040516101029190610a15565b348015610240575f80fd5b506100f86298968081565b348015610256575f80fd5b505f54610269906001600160a01b031681565b6040516001600160a01b039091168152602001610102565b34801561028c575f80fd5b5061012a61029b366004610975565b610655565b3480156102ab575f80fd5b506100f86102ba366004610975565b60036020525f908152604090205481565b3480156102d6575f80fd5b5061012a6102e5366004610a61565b61069d565b5f546001600160a01b0316331461033d5760405162461bcd60e51b815260206004820152601260248201527129b2b93b34b1b29d103737ba1037bbb732b960711b60448201526064015b60405180910390fd5b6001600160a01b0381166103825760405162461bcd60e51b815260206004820152600c60248201526b5a65726f206164647265737360a01b6044820152606401610334565b5f80546040516001600160a01b03808516939216917fe1f36a9f25132c9de433018d743274e1addc8ac0606902f9570ad7d89e24051391a35f80546001600160a01b0319166001600160a01b0392909216919091179055565b6001600160a01b0381165f908152600260209081526040808320805482518185028101850190935280835260609492939192909184015b8282101561045f578382905f5260205f2090600302016040518060600160405290815f82015481526020016001820154815260200160028201548152505081526020019060010190610412565b505050509050919050565b5f546001600160a01b031633146104b85760405162461bcd60e51b815260206004820152601260248201527129b2b93b34b1b29d103737ba1037bbb732b960711b6044820152606401610334565b6104c06107eb565b6001600160a01b0382165f908152600460205260409020548111156105275760405162461bcd60e51b815260206004820152601d60248201527f536572766963653a20696e73756666696369656e7420726576656e75650000006044820152606401610334565b6001600160a01b0382165f908152600460205260408120805483929061054e908490610aae565b90915550505f5461056c906001600160a01b03848116911683610806565b816001600160a01b03167f86a5cc8fe9af9ae68fb50f62885307a7755a30cbd290131644377f0bd94a7181826040516105a791815260200190565b60405180910390a26105c560015f80516020610b1383398151915255565b5050565b600180546105d690610ac7565b80601f016020809104026020016040519081016040528092919081815260200182805461060290610ac7565b801561064d5780601f106106245761010080835404028352916020019161064d565b820191905f5260205f20905b81548152906001019060200180831161063057829003601f168201915b505050505081565b6001600160a01b0381165f81815260056020526040808220805460ff19169055517f1e14e4b1429907f997001c05efd94b7c02217a1c70f92e33652515c2602623fa9190a250565b6106a56107eb565b6001600160a01b0383165f908152600260205260408120546106c8906001610aff565b6001600160a01b0385165f8181526002602081815260408084208151606081018352898152428185019081528184018981528354600181810186559489528689209351600391820290940193845591519383019390935591519401939093559383525290812080549293508492909190610743908490610aff565b90915550506001600160a01b0383165f908152600460205260408120805484929061076f908490610aff565b90915550506040805183815260208101839052428183015290516001600160a01b0385811692908716917fc7b46480d33c7777f384469a19809970cd36d96f3f1fc921e4b6a304e4b761f99181900360600190a36107cf8484848461083b565b506107e660015f80516020610b1383398151915255565b505050565b6107f36108c7565b60025f80516020610b1383398151915255565b61081383838360016108f8565b6107e657604051635274afe760e01b81526001600160a01b0384166004820152602401610334565b62989680821015801561086657506001600160a01b0384165f9081526005602052604090205460ff16155b156108c1576001600160a01b0384165f818152600560209081526040808320805460ff191660011790556006909152808220429055517f9b0dfddc7b811f70aa2c63314554f36c3be80f3a490db1ee566c6ae5b9e049709190a25b50505050565b5f80516020610b13833981519152546002036108f657604051633ee5aeb560e01b815260040160405180910390fd5b565b60405163a9059cbb60e01b5f8181526001600160a01b038616600452602485905291602083604481808b5af1925060015f5114831661094e578383151615610942573d5f823e3d81fd5b5f873b113d1516831692505b60405250949350505050565b80356001600160a01b0381168114610970575f80fd5b919050565b5f60208284031215610985575f80fd5b61098e8261095a565b9392505050565b602080825282518282018190525f919060409081850190868401855b828110156109e057815180518552868101518786015285015185850152606090930192908501906001016109b1565b5091979650505050505050565b5f80604083850312156109fe575f80fd5b610a078361095a565b946020939093013593505050565b5f602080835283518060208501525f5b81811015610a4157858101830151858201604001528201610a25565b505f604082860101526040601f19601f8301168501019250505092915050565b5f805f60608486031215610a73575f80fd5b610a7c8461095a565b9250610a8a6020850161095a565b9150604084013590509250925092565b634e487b7160e01b5f52601160045260245ffd5b81810381811115610ac157610ac1610a9a565b92915050565b600181811c90821680610adb57607f821691505b602082108103610af957634e487b7160e01b5f52602260045260245ffd5b50919050565b80820180821115610ac157610ac1610a9a56fe9b779b17422d0df92223018b32b4d1fa46e071723d6817e2486d003becc55f00a26469706673582212201e282eb61d285e245a413f6c7d691036944c5741234e64bb2570cb9b202ba6b064736f6c63430008180033",
  "linkReferences": {},
  "deployedLinkReferences": {}
}